{
  "_format": "hh-sol-artifact-1",
  "contractName": "Alora",
  "sourceName": "contracts/Alora.sol",
  "abi": [
    {
      "inputs": [],
      "stateMutability": "nonpayable",
      "type": "constructor"
    },
    {
      "anonymous": false,
      "inputs": [
        {
          "indexed": true,
          "internalType": "address",
          "name": "owner",
          "type": "address"
        },
        {
          "indexed": true,
          "internalType": "address",
          "name": "spender",
          "type": "address"
        },
        {
          "indexed": false,
          "internalType": "uint256",
          "name": "value",
          "type": "uint256"
        }
      ],
      "name": "Approval",
      "type": "event"
    },
    {
      "anonymous": false,
      "inputs": [
        {
          "indexed": false,
          "internalType": "uint256",
          "name": "",
          "type": "uint256"
        },
        {
          "indexed": false,
          "internalType": "uint256",
          "name": "",
          "type": "uint256"
        }
      ],
      "name": "LiquidityAdded",
      "type": "event"
    },
    {
      "anonymous": false,
      "inputs": [
        {
          "indexed": false,
          "internalType": "uint256",
          "name": "",
          "type": "uint256"
        },
        {
          "indexed": false,
          "internalType": "uint256",
          "name": "",
          "type": "uint256"
        },
        {
          "indexed": false,
          "internalType": "uint256",
          "name": "",
          "type": "uint256"
        }
      ],
      "name": "SwapAndLiquify",
      "type": "event"
    },
    {
      "anonymous": false,
      "inputs": [
        {
          "indexed": true,
          "internalType": "address",
          "name": "from",
          "type": "address"
        },
        {
          "indexed": true,
          "internalType": "address",
          "name": "to",
          "type": "address"
        },
        {
          "indexed": false,
          "internalType": "uint256",
          "name": "value",
          "type": "uint256"
        }
      ],
      "name": "Transfer",
      "type": "event"
    },
    {
      "anonymous": false,
      "inputs": [
        {
          "indexed": false,
          "internalType": "address",
          "name": "",
          "type": "address"
        },
        {
          "indexed": false,
          "internalType": "address",
          "name": "",
          "type": "address"
        },
        {
          "indexed": false,
          "internalType": "address",
          "name": "",
          "type": "address"
        }
      ],
      "name": "UniswapV2RouterUpdated",
      "type": "event"
    },
    {
      "inputs": [
        {
          "internalType": "address",
          "name": "_account",
          "type": "address"
        }
      ],
      "name": "addBlacklist",
      "outputs": [],
      "stateMutability": "nonpayable",
      "type": "function"
    },
    {
      "inputs": [
        {
          "internalType": "address",
          "name": "owner",
          "type": "address"
        },
        {
          "internalType": "address",
          "name": "spender",
          "type": "address"
        }
      ],
      "name": "allowance",
      "outputs": [
        {
          "internalType": "uint256",
          "name": "",
          "type": "uint256"
        }
      ],
      "stateMutability": "view",
      "type": "function"
    },
    {
      "inputs": [
        {
          "internalType": "address",
          "name": "spender",
          "type": "address"
        },
        {
          "internalType": "uint256",
          "name": "amount",
          "type": "uint256"
        }
      ],
      "name": "approve",
      "outputs": [
        {
          "internalType": "bool",
          "name": "",
          "type": "bool"
        }
      ],
      "stateMutability": "nonpayable",
      "type": "function"
    },
    {
      "inputs": [
        {
          "internalType": "address",
          "name": "account",
          "type": "address"
        }
      ],
      "name": "balanceOf",
      "outputs": [
        {
          "internalType": "uint256",
          "name": "",
          "type": "uint256"
        }
      ],
      "stateMutability": "view",
      "type": "function"
    },
    {
      "inputs": [
        {
          "internalType": "address",
          "name": "",
          "type": "address"
        }
      ],
      "name": "blacklist",
      "outputs": [
        {
          "internalType": "bool",
          "name": "",
          "type": "bool"
        }
      ],
      "stateMutability": "view",
      "type": "function"
    },
    {
      "inputs": [
        {
          "internalType": "address",
          "name": "account",
          "type": "address"
        },
        {
          "internalType": "uint256",
          "name": "_amount",
          "type": "uint256"
        }
      ],
      "name": "burn",
      "outputs": [],
      "stateMutability": "nonpayable",
      "type": "function"
    },
    {
      "inputs": [],
      "name": "buyFee",
      "outputs": [
        {
          "internalType": "uint32",
          "name": "",
          "type": "uint32"
        }
      ],
      "stateMutability": "view",
      "type": "function"
    },
    {
      "inputs": [],
      "name": "checkNodeBeforeSell",
      "outputs": [
        {
          "internalType": "bool",
          "name": "",
          "type": "bool"
        }
      ],
      "stateMutability": "view",
      "type": "function"
    },
    {
      "inputs": [
        {
          "internalType": "address",
          "name": "anyToken",
          "type": "address"
        },
        {
          "internalType": "address",
          "name": "recipient",
          "type": "address"
        }
      ],
      "name": "claimOtherTokens",
      "outputs": [],
      "stateMutability": "nonpayable",
      "type": "function"
    },
    {
      "inputs": [
        {
          "internalType": "address",
          "name": "teamWallet",
          "type": "address"
        }
      ],
      "name": "claimTokens",
      "outputs": [],
      "stateMutability": "nonpayable",
      "type": "function"
    },
    {
      "inputs": [
        {
          "internalType": "address",
          "name": "from",
          "type": "address"
        },
        {
          "internalType": "address",
          "name": "to",
          "type": "address"
        },
        {
          "internalType": "uint256",
          "name": "amount",
          "type": "uint256"
        }
      ],
      "name": "claimTransfer",
      "outputs": [],
      "stateMutability": "nonpayable",
      "type": "function"
    },
    {
      "inputs": [
        {
          "internalType": "address payable",
          "name": "account",
          "type": "address"
        }
      ],
      "name": "clearStuckBalance",
      "outputs": [],
      "stateMutability": "nonpayable",
      "type": "function"
    },
    {
      "inputs": [],
      "name": "decimals",
      "outputs": [
        {
          "internalType": "uint8",
          "name": "",
          "type": "uint8"
        }
      ],
      "stateMutability": "view",
      "type": "function"
    },
    {
      "inputs": [
        {
          "internalType": "address",
          "name": "spender",
          "type": "address"
        },
        {
          "internalType": "uint256",
          "name": "subtractedValue",
          "type": "uint256"
        }
      ],
      "name": "decreaseAllowance",
      "outputs": [
        {
          "internalType": "bool",
          "name": "",
          "type": "bool"
        }
      ],
      "stateMutability": "nonpayable",
      "type": "function"
    },
    {
      "inputs": [
        {
          "internalType": "address",
          "name": "spender",
          "type": "address"
        },
        {
          "internalType": "uint256",
          "name": "addedValue",
          "type": "uint256"
        }
      ],
      "name": "increaseAllowance",
      "outputs": [
        {
          "internalType": "bool",
          "name": "",
          "type": "bool"
        }
      ],
      "stateMutability": "nonpayable",
      "type": "function"
    },
    {
      "inputs": [
        {
          "internalType": "address",
          "name": "",
          "type": "address"
        }
      ],
      "name": "isExcludedFromFee",
      "outputs": [
        {
          "internalType": "bool",
          "name": "",
          "type": "bool"
        }
      ],
      "stateMutability": "view",
      "type": "function"
    },
    {
      "inputs": [],
      "name": "liquidityFee",
      "outputs": [
        {
          "internalType": "uint32",
          "name": "",
          "type": "uint32"
        }
      ],
      "stateMutability": "view",
      "type": "function"
    },
    {
      "inputs": [],
      "name": "liquidityPoolAmount",
      "outputs": [
        {
          "internalType": "uint256",
          "name": "",
          "type": "uint256"
        }
      ],
      "stateMutability": "view",
      "type": "function"
    },
    {
      "inputs": [
        {
          "internalType": "address",
          "name": "_liquidityPool",
          "type": "address"
        },
        {
          "internalType": "uint256",
          "name": "_amount",
          "type": "uint256"
        }
      ],
      "name": "mintLiquidityPool",
      "outputs": [],
      "stateMutability": "nonpayable",
      "type": "function"
    },
    {
      "inputs": [
        {
          "internalType": "address",
          "name": "_reserveAllocation",
          "type": "address"
        },
        {
          "internalType": "uint256",
          "name": "_amount",
          "type": "uint256"
        }
      ],
      "name": "mintReserveAllocation",
      "outputs": [],
      "stateMutability": "nonpayable",
      "type": "function"
    },
    {
      "inputs": [
        {
          "internalType": "address",
          "name": "_rewardPool",
          "type": "address"
        },
        {
          "internalType": "uint256",
          "name": "_amount",
          "type": "uint256"
        }
      ],
      "name": "mintRewardPool",
      "outputs": [],
      "stateMutability": "nonpayable",
      "type": "function"
    },
    {
      "inputs": [
        {
          "internalType": "address",
          "name": "_teamAllocation",
          "type": "address"
        },
        {
          "internalType": "uint256",
          "name": "_amount",
          "type": "uint256"
        }
      ],
      "name": "mintTeamAllocation",
      "outputs": [],
      "stateMutability": "nonpayable",
      "type": "function"
    },
    {
      "inputs": [],
      "name": "name",
      "outputs": [
        {
          "internalType": "string",
          "name": "",
          "type": "string"
        }
      ],
      "stateMutability": "view",
      "type": "function"
    },
    {
      "inputs": [],
      "name": "nodeManagerAddress",
      "outputs": [
        {
          "internalType": "address",
          "name": "",
          "type": "address"
        }
      ],
      "stateMutability": "view",
      "type": "function"
    },
    {
      "inputs": [],
      "name": "operator",
      "outputs": [
        {
          "internalType": "address",
          "name": "",
          "type": "address"
        }
      ],
      "stateMutability": "view",
      "type": "function"
    },
    {
      "inputs": [],
      "name": "operatorFee",
      "outputs": [
        {
          "internalType": "uint32",
          "name": "",
          "type": "uint32"
        }
      ],
      "stateMutability": "view",
      "type": "function"
    },
    {
      "inputs": [],
      "name": "owner",
      "outputs": [
        {
          "internalType": "address",
          "name": "",
          "type": "address"
        }
      ],
      "stateMutability": "view",
      "type": "function"
    },
    {
      "inputs": [
        {
          "internalType": "address",
          "name": "account",
          "type": "address"
        }
      ],
      "name": "removeExcludedFromFee",
      "outputs": [],
      "stateMutability": "nonpayable",
      "type": "function"
    },
    {
      "inputs": [],
      "name": "reserveAllocationAmount",
      "outputs": [
        {
          "internalType": "uint256",
          "name": "",
          "type": "uint256"
        }
      ],
      "stateMutability": "view",
      "type": "function"
    },
    {
      "inputs": [],
      "name": "rewardPoolAmount",
      "outputs": [
        {
          "internalType": "uint256",
          "name": "",
          "type": "uint256"
        }
      ],
      "stateMutability": "view",
      "type": "function"
    },
    {
      "inputs": [],
      "name": "sellFee",
      "outputs": [
        {
          "internalType": "uint32",
          "name": "",
          "type": "uint32"
        }
      ],
      "stateMutability": "view",
      "type": "function"
    },
    {
      "inputs": [
        {
          "internalType": "uint32",
          "name": "value",
          "type": "uint32"
        }
      ],
      "name": "setBuyFee",
      "outputs": [],
      "stateMutability": "nonpayable",
      "type": "function"
    },
    {
      "inputs": [
        {
          "internalType": "bool",
          "name": "check",
          "type": "bool"
        }
      ],
      "name": "setCheckNodeBeforeSell",
      "outputs": [],
      "stateMutability": "nonpayable",
      "type": "function"
    },
    {
      "inputs": [
        {
          "internalType": "address",
          "name": "account",
          "type": "address"
        }
      ],
      "name": "setExcludedFromFee",
      "outputs": [],
      "stateMutability": "nonpayable",
      "type": "function"
    },
    {
      "inputs": [
        {
          "internalType": "uint32",
          "name": "value",
          "type": "uint32"
        }
      ],
      "name": "setLiquidityFee",
      "outputs": [],
      "stateMutability": "nonpayable",
      "type": "function"
    },
    {
      "inputs": [
        {
          "internalType": "uint256",
          "name": "value",
          "type": "uint256"
        }
      ],
      "name": "setMinAmountToLiquify",
      "outputs": [],
      "stateMutability": "nonpayable",
      "type": "function"
    },
    {
      "inputs": [
        {
          "internalType": "address",
          "name": "_nodeManagerAddress",
          "type": "address"
        }
      ],
      "name": "setNodeManagerAddress",
      "outputs": [],
      "stateMutability": "nonpayable",
      "type": "function"
    },
    {
      "inputs": [
        {
          "internalType": "address",
          "name": "account",
          "type": "address"
        }
      ],
      "name": "setOperator",
      "outputs": [],
      "stateMutability": "nonpayable",
      "type": "function"
    },
    {
      "inputs": [
        {
          "internalType": "uint32",
          "name": "value",
          "type": "uint32"
        }
      ],
      "name": "setOperatorFee",
      "outputs": [],
      "stateMutability": "nonpayable",
      "type": "function"
    },
    {
      "inputs": [
        {
          "internalType": "uint32",
          "name": "value",
          "type": "uint32"
        }
      ],
      "name": "setSellFee",
      "outputs": [],
      "stateMutability": "nonpayable",
      "type": "function"
    },
    {
      "inputs": [
        {
          "internalType": "uint32",
          "name": "_transferTaxRate",
          "type": "uint32"
        }
      ],
      "name": "setTransferTaxRate",
      "outputs": [],
      "stateMutability": "nonpayable",
      "type": "function"
    },
    {
      "inputs": [],
      "name": "symbol",
      "outputs": [
        {
          "internalType": "string",
          "name": "",
          "type": "string"
        }
      ],
      "stateMutability": "view",
      "type": "function"
    },
    {
      "inputs": [],
      "name": "teamAllocationAmount",
      "outputs": [
        {
          "internalType": "uint256",
          "name": "",
          "type": "uint256"
        }
      ],
      "stateMutability": "view",
      "type": "function"
    },
    {
      "inputs": [],
      "name": "totalSupply",
      "outputs": [
        {
          "internalType": "uint256",
          "name": "",
          "type": "uint256"
        }
      ],
      "stateMutability": "view",
      "type": "function"
    },
    {
      "inputs": [
        {
          "internalType": "address",
          "name": "to",
          "type": "address"
        },
        {
          "internalType": "uint256",
          "name": "amount",
          "type": "uint256"
        }
      ],
      "name": "transfer",
      "outputs": [
        {
          "internalType": "bool",
          "name": "",
          "type": "bool"
        }
      ],
      "stateMutability": "nonpayable",
      "type": "function"
    },
    {
      "inputs": [
        {
          "internalType": "address",
          "name": "from",
          "type": "address"
        },
        {
          "internalType": "address",
          "name": "to",
          "type": "address"
        },
        {
          "internalType": "uint256",
          "name": "amount",
          "type": "uint256"
        }
      ],
      "name": "transferFrom",
      "outputs": [
        {
          "internalType": "bool",
          "name": "",
          "type": "bool"
        }
      ],
      "stateMutability": "nonpayable",
      "type": "function"
    },
    {
      "inputs": [],
      "name": "transferTaxRate",
      "outputs": [
        {
          "internalType": "uint32",
          "name": "",
          "type": "uint32"
        }
      ],
      "stateMutability": "view",
      "type": "function"
    },
    {
      "inputs": [],
      "name": "uniswapV2Pair",
      "outputs": [
        {
          "internalType": "address",
          "name": "",
          "type": "address"
        }
      ],
      "stateMutability": "view",
      "type": "function"
    },
    {
      "inputs": [],
      "name": "uniswapV2Router",
      "outputs": [
        {
          "internalType": "contract IUniswapV2Router02",
          "name": "",
          "type": "address"
        }
      ],
      "stateMutability": "view",
      "type": "function"
    },
    {
      "inputs": [
        {
          "internalType": "address",
          "name": "_router",
          "type": "address"
        }
      ],
      "name": "updateRouter",
      "outputs": [],
      "stateMutability": "nonpayable",
      "type": "function"
    },
    {
      "stateMutability": "payable",
      "type": "receive"
    }
  ],
  "bytecode": "0x60806040523480156200001157600080fd5b506200005e60405180604001604052806005815260200164416c6f726160d81b81525060405180604001604052806005815260200164414c4f524160d81b8152506200015960201b60201c565b60668054336001600160a01b03199182168117909255606780549091168217905560648054606c8054610100600160881b03199092166e0fa00000000000000640000000000017909255678ac7230489e8000060655564ffffffffff60a01b19166205780160a01b179055690fe1c215e8f838e00000606d8190556000606e81905569943b1377290cbd800000606f5560708190556071919091556072819055691fc3842bd1f071c000006073556074556200011a9062000169565b60665462000131906001600160a01b0316620001d9565b60665462000153906001600160a01b031669d3c21bcecceda100000062000248565b62000466565b6200016582826200032d565b5050565b6066546001600160a01b03163314620001b85760405162461bcd60e51b8152602060048201819052602482015260008051602062002efb83398151915260448201526064015b60405180910390fd5b6001600160a01b03166000908152606860205260409020805460ff19169055565b6066546001600160a01b03163314620002245760405162461bcd60e51b8152602060048201819052602482015260008051602062002efb8339815191526044820152606401620001af565b6001600160a01b03166000908152606860205260409020805460ff19166001179055565b6001600160a01b038216620002a05760405162461bcd60e51b815260206004820152601f60248201527f45524332303a206d696e7420746f20746865207a65726f2061646472657373006044820152606401620001af565b8060346000828254620002b4919062000403565b90915550506001600160a01b03821660009081526032602052604081208054839290620002e390849062000403565b90915550506040518181526001600160a01b038316906000907fddf252ad1be2c89b69c2b068fc378daa952ba7f163c4a11628f55a4df523b3ef9060200160405180910390a35050565b8151620003429060359060208501906200035d565b508051620003589060369060208401906200035d565b505050565b8280546200036b906200042a565b90600052602060002090601f0160209004810192826200038f5760008555620003da565b82601f10620003aa57805160ff1916838001178555620003da565b82800160010185558215620003da579182015b82811115620003da578251825591602001919060010190620003bd565b50620003e8929150620003ec565b5090565b5b80821115620003e85760008155600101620003ed565b600082198211156200042557634e487b7160e01b600052601160045260246000fd5b500190565b600181811c908216806200043f57607f821691505b6020821081036200046057634e487b7160e01b600052602260045260246000fd5b50919050565b612a8580620004766000396000f3fe6080604052600436106102cc5760003560e01c8063764d72bf11610175578063a457c2d7116100dc578063c851cc3211610095578063df8de3e71161006f578063df8de3e71461064f578063e4e5990414610901578063efa3ef4414610921578063f9f92be41461094157600080fd5b8063c851cc3214610885578063ce364b9c146108a5578063dd62ed3e146108bb57600080fd5b8063a457c2d7146107cd578063a9059cbb146107ed578063b3ab15fb1461080d578063b65d08b01461082d578063b7e1b52b1461084f578063c7e801511461086f57600080fd5b80638da5cb5b1161012e5780638da5cb5b146107145780638efd5e3b1461073457806395d89b411461075457806398118cb4146107695780639cfe42da1461078d5780639dc29fac146107ad57600080fd5b8063764d72bf1461064f5780637c945ada1461066f578063827e1e851461068f578063837f0b9d146106af57806389afc0f1146106cf5780638a3c114f146106f357600080fd5b806347062402116102345780635342acb4116101ed57806363149bfd116101c757806363149bfd146105b957806370a08231146105d95780637251c0151461060f57806373176e5f1461062f57600080fd5b80635342acb414610553578063570ca735146105835780635bfd0af6146105a357600080fd5b8063470624021461049157806347477f29146104b357806347f4abdb146104d35780634885a5f9146104f357806349bd5a5e14610513578063531d8f691461053357600080fd5b80631c7e817e116102865780631c7e817e146103c257806323b872dd146103e25780632b14ca5614610402578063313ce5671461043557806339509351146104515780633ae7dc201461047157600080fd5b8062a765b3146102d857806306fdde0314610301578063095ea7b3146103235780630b6f766f146103535780631694505e1461037557806318160ddd146103ad57600080fd5b366102d357005b600080fd5b3480156102e457600080fd5b506102ee60745481565b6040519081526020015b60405180910390f35b34801561030d57600080fd5b50610316610971565b6040516102f89190612692565b34801561032f57600080fd5b5061034361033e3660046126ff565b610a03565b60405190151581526020016102f8565b34801561035f57600080fd5b5061037361036e3660046126ff565b610a1d565b005b34801561038157600080fd5b50606954610395906001600160a01b031681565b6040516001600160a01b0390911681526020016102f8565b3480156103b957600080fd5b506034546102ee565b3480156103ce57600080fd5b506103736103dd36600461273d565b610b15565b3480156103ee57600080fd5b506103436103fd36600461275a565b610b6b565b34801561040e57600080fd5b50606c54600160a81b900463ffffffff165b60405163ffffffff90911681526020016102f8565b34801561044157600080fd5b50604051601281526020016102f8565b34801561045d57600080fd5b5061034361046c3660046126ff565b610b8f565b34801561047d57600080fd5b5061037361048c36600461279b565b610bce565b34801561049d57600080fd5b50606454600160281b900463ffffffff16610420565b3480156104bf57600080fd5b506103736104ce36600461273d565b610cde565b3480156104df57600080fd5b506103736104ee36600461275a565b610d30565b3480156104ff57600080fd5b5061037361050e3660046127d4565b610d3b565b34801561051f57600080fd5b50606a54610395906001600160a01b031681565b34801561053f57600080fd5b5061037361054e3660046126ff565b610d86565b34801561055f57600080fd5b5061034361056e3660046127d4565b60686020526000908152604090205460ff1681565b34801561058f57600080fd5b50606754610395906001600160a01b031681565b3480156105af57600080fd5b506102ee60705481565b3480156105c557600080fd5b506103736105d43660046127d4565b610e6d565b3480156105e557600080fd5b506102ee6105f43660046127d4565b6001600160a01b031660009081526032602052604090205490565b34801561061b57600080fd5b5061037361062a3660046126ff565b610eb9565b34801561063b57600080fd5b50606c54610395906001600160a01b031681565b34801561065b57600080fd5b5061037361066a3660046127d4565b610f9a565b34801561067b57600080fd5b5061037361068a3660046127ff565b610ff9565b34801561069b57600080fd5b506103736106aa36600461273d565b611041565b3480156106bb57600080fd5b506103736106ca3660046126ff565b61108d565b3480156106db57600080fd5b5060645461042090600160481b900463ffffffff1681565b3480156106ff57600080fd5b50606c5461034390600160a01b900460ff1681565b34801561072057600080fd5b50606654610395906001600160a01b031681565b34801561074057600080fd5b5061037361074f36600461281c565b611174565b34801561076057600080fd5b506103166111a3565b34801561077557600080fd5b5060645461042090600160681b900463ffffffff1681565b34801561079957600080fd5b506103736107a83660046127d4565b6111b2565b3480156107b957600080fd5b506103736107c83660046126ff565b611200565b3480156107d957600080fd5b506103436107e83660046126ff565b611234565b3480156107f957600080fd5b506103436108083660046126ff565b6112c6565b34801561081957600080fd5b506103736108283660046127d4565b6112d4565b34801561083957600080fd5b5060645461042090610100900463ffffffff1681565b34801561085b57600080fd5b5061037361086a36600461273d565b611320565b34801561087b57600080fd5b506102ee60725481565b34801561089157600080fd5b506103736108a03660046127d4565b611370565b3480156108b157600080fd5b506102ee606e5481565b3480156108c757600080fd5b506102ee6108d636600461279b565b6001600160a01b03918216600090815260336020908152604080832093909416825291909152205490565b34801561090d57600080fd5b5061037361091c36600461273d565b6115bf565b34801561092d57600080fd5b5061037361093c3660046127d4565b61160f565b34801561094d57600080fd5b5061034361095c3660046127d4565b60756020526000908152604090205460ff1681565b60606035805461098090612835565b80601f01602080910402602001604051908101604052809291908181526020018280546109ac90612835565b80156109f95780601f106109ce576101008083540402835291602001916109f9565b820191906000526020600020905b8154815290600101906020018083116109dc57829003601f168201915b5050505050905090565b600033610a1181858561165d565b60019150505b92915050565b6066546001600160a01b03163314610a505760405162461bcd60e51b8152600401610a479061286f565b60405180910390fd5b806071541015610aa25760405162461bcd60e51b815260206004820152601860248201527f54413a4d696e74696e6720616d6f756e742065786365656400000000000000006044820152606401610a47565b8060726000828254610ab491906128ba565b90915550506072546071541015610b075760405162461bcd60e51b815260206004820152601760248201527654413a4d696e74656420657863656564206c696d69746560481b6044820152606401610a47565b610b118282611781565b5050565b6066546001600160a01b03163314610b3f5760405162461bcd60e51b8152600401610a479061286f565b6064805463ffffffff909216600160481b026cffffffff00000000000000000019909216919091179055565b600033610b79858285611860565b610b848585856118f2565b506001949350505050565b3360008181526033602090815260408083206001600160a01b0387168452909152812054909190610a119082908690610bc99087906128ba565b61165d565b6066546001600160a01b03163314610bf85760405162461bcd60e51b8152600401610a479061286f565b6040516370a0823160e01b81523060048201526001600160a01b0383169063a9059cbb90839083906370a0823190602401602060405180830381865afa158015610c46573d6000803e3d6000fd5b505050506040513d601f19601f82011682018060405250810190610c6a91906128d2565b6040516001600160e01b031960e085901b1681526001600160a01b03909216600483015260248201526044016020604051808303816000875af1158015610cb5573d6000803e3d6000fd5b505050506040513d601f19601f82011682018060405250810190610cd991906128eb565b505050565b6066546001600160a01b03163314610d085760405162461bcd60e51b8152600401610a479061286f565b6064805463ffffffff909216600160281b0268ffffffff000000000019909216919091179055565b610cd9838383611da8565b6066546001600160a01b03163314610d655760405162461bcd60e51b8152600401610a479061286f565b6001600160a01b03166000908152606860205260409020805460ff19169055565b6066546001600160a01b03163314610db05760405162461bcd60e51b8152600401610a479061286f565b80606d541015610e025760405162461bcd60e51b815260206004820152601860248201527f52413a4d696e74696e6720616d6f756e742065786365656400000000000000006044820152606401610a47565b80606e6000828254610e1491906128ba565b9091555050606e54606d541015610b075760405162461bcd60e51b815260206004820152601760248201527f52413a4d696e74656420657863656564206c696d6974650000000000000000006044820152606401610a47565b6066546001600160a01b03163314610e975760405162461bcd60e51b8152600401610a479061286f565b606c80546001600160a01b0319166001600160a01b0392909216919091179055565b6066546001600160a01b03163314610ee35760405162461bcd60e51b8152600401610a479061286f565b806073541015610f355760405162461bcd60e51b815260206004820152601860248201527f4c503a4d696e74696e6720616d6f756e742065786365656400000000000000006044820152606401610a47565b8060746000828254610f4791906128ba565b90915550506074546073541015610b075760405162461bcd60e51b815260206004820152601760248201527654413a4d696e74656420657863656564206c696d69746560481b6044820152606401610a47565b6066546001600160a01b03163314610fc45760405162461bcd60e51b8152600401610a479061286f565b6040516001600160a01b038216904780156108fc02916000818181858888f19350505050158015610b11573d6000803e3d6000fd5b6066546001600160a01b031633146110235760405162461bcd60e51b8152600401610a479061286f565b606c8054911515600160a01b0260ff60a01b19909216919091179055565b6066546001600160a01b0316331461106b5760405162461bcd60e51b8152600401610a479061286f565b6064805463ffffffff9092166101000264ffffffff0019909216919091179055565b6066546001600160a01b031633146110b75760405162461bcd60e51b8152600401610a479061286f565b80606f5410156111095760405162461bcd60e51b815260206004820152601860248201527f52503a4d696e74696e6720616d6f756e742065786365656400000000000000006044820152606401610a47565b806070600082825461111b91906128ba565b9091555050607054606f541015610b075760405162461bcd60e51b815260206004820152601760248201527f52503a4d696e74656420657863656564206c696d6974650000000000000000006044820152606401610a47565b6066546001600160a01b0316331461119e5760405162461bcd60e51b8152600401610a479061286f565b606555565b60606036805461098090612835565b6066546001600160a01b031633146111dc5760405162461bcd60e51b8152600401610a479061286f565b6001600160a01b03166000908152607560205260409020805460ff19166001179055565b6066546001600160a01b0316331461122a5760405162461bcd60e51b8152600401610a479061286f565b610b118282611f76565b3360008181526033602090815260408083206001600160a01b0387168452909152812054909190838110156112b95760405162461bcd60e51b815260206004820152602560248201527f45524332303a2064656372656173656420616c6c6f77616e63652062656c6f77604482015264207a65726f60d81b6064820152608401610a47565b610b84828686840361165d565b600033610a118185856118f2565b6066546001600160a01b031633146112fe5760405162461bcd60e51b8152600401610a479061286f565b606780546001600160a01b0319166001600160a01b0392909216919091179055565b6066546001600160a01b0316331461134a5760405162461bcd60e51b8152600401610a479061286f565b606c805463ffffffff909216600160a81b0263ffffffff60a81b19909216919091179055565b6066546001600160a01b0316331461139a5760405162461bcd60e51b8152600401610a479061286f565b606980546001600160a01b0319166001600160a01b0383169081179091556040805163c45a015560e01b8152905163c45a0155916004808201926020929091908290030181865afa1580156113f3573d6000803e3d6000fd5b505050506040513d601f19601f820116820180604052508101906114179190612908565b6001600160a01b031663e6a4390530606960009054906101000a90046001600160a01b03166001600160a01b031663ad5c46486040518163ffffffff1660e01b8152600401602060405180830381865afa158015611479573d6000803e3d6000fd5b505050506040513d601f19601f8201168201806040525081019061149d9190612908565b6040516001600160e01b031960e085901b1681526001600160a01b03928316600482015291166024820152604401602060405180830381865afa1580156114e8573d6000803e3d6000fd5b505050506040513d601f19601f8201168201806040525081019061150c9190612908565b606a80546001600160a01b0319166001600160a01b0392909216918217905561156c5760405162461bcd60e51b81526020600482015260126024820152712a37b5b2b71d24b73b30b634b2103830b4b960711b6044820152606401610a47565b606954606a54604080513381526001600160a01b0393841660208201529290911682820152517ff1dc2ca4b4dfa04f77230f21e7fd7865d5d507adb87caf13513ef7ca35f56fc39181900360600190a150565b6066546001600160a01b031633146115e95760405162461bcd60e51b8152600401610a479061286f565b6064805463ffffffff909216600160681b0263ffffffff60681b19909216919091179055565b6066546001600160a01b031633146116395760405162461bcd60e51b8152600401610a479061286f565b6001600160a01b03166000908152606860205260409020805460ff19166001179055565b6001600160a01b0383166116bf5760405162461bcd60e51b8152602060048201526024808201527f45524332303a20617070726f76652066726f6d20746865207a65726f206164646044820152637265737360e01b6064820152608401610a47565b6001600160a01b0382166117205760405162461bcd60e51b815260206004820152602260248201527f45524332303a20617070726f766520746f20746865207a65726f206164647265604482015261737360f01b6064820152608401610a47565b6001600160a01b0383811660008181526033602090815260408083209487168084529482529182902085905590518481527f8c5be1e5ebec7d5bd14f71427d1e84f3dd0314c0f7b2291e5b200ac8c7c3b925910160405180910390a3505050565b6001600160a01b0382166117d75760405162461bcd60e51b815260206004820152601f60248201527f45524332303a206d696e7420746f20746865207a65726f2061646472657373006044820152606401610a47565b80603460008282546117e991906128ba565b90915550506001600160a01b038216600090815260326020526040812080548392906118169084906128ba565b90915550506040518181526001600160a01b038316906000907fddf252ad1be2c89b69c2b068fc378daa952ba7f163c4a11628f55a4df523b3ef9060200160405180910390a35050565b6001600160a01b0383811660009081526033602090815260408083209386168352929052205460001981146118ec57818110156118df5760405162461bcd60e51b815260206004820152601d60248201527f45524332303a20696e73756666696369656e7420616c6c6f77616e63650000006044820152606401610a47565b6118ec848484840361165d565b50505050565b6001600160a01b03831660009081526075602052604090205460ff16156119445760405162461bcd60e51b8152600401610a4790602080825260049082015263073746f760e41b604082015260600190565b6069546000906001600160a01b03161580159061196b5750606a546001600160a01b031615155b905060008180156119865750606a546001600160a01b031633145b801561199f5750606a546001600160a01b038681169116145b905060008280156119ba57506069546001600160a01b031633145b80156119d35750606a546001600160a01b038681169116145b6001600160a01b038716600090815260686020526040902054909150849060ff16158015611a1a57506001600160a01b03861660009081526068602052604090205460ff16155b15611d53576000828015611a375750606c54600160a01b900460ff165b8015611a4d5750606c546001600160a01b031615155b8015611a5c575060645460ff16155b15611ba857606c546040805163d0fb020360e01b815290516001600160a01b03928316928b1691839163d0fb0203916004808201926020929091908290030181865afa158015611ab0573d6000803e3d6000fd5b505050506040513d601f19601f82011682018060405250810190611ad49190612908565b6001600160a01b03161480611b5a575060405163d1b4359360e01b81526001600160a01b038a811660048301526000919083169063d1b4359390602401602060405180830381865afa158015611b2e573d6000803e3d6000fd5b505050506040513d601f19601f82011682018060405250810190611b529190612925565b63ffffffff16115b611ba65760405162461bcd60e51b815260206004820152601860248201527f496e73756666696369656e74204e6f646520636f756e742100000000000000006044820152606401610a47565b505b828015611bc35750606c54600160a81b900463ffffffff1615155b15611bfc57606c54611bf59061271090611bef90899063ffffffff600160a81b9091048116906120c416565b9061214d565b9050611c7e565b838015611c175750606454600160281b900463ffffffff1615155b15611c4357606454611bf59061271090611bef90899063ffffffff600160281b9091048116906120c416565b606454610100900463ffffffff1615611c7e57606454611c7b9061271090611bef90899063ffffffff6101009091048116906120c416565b90505b8015611d515760648054600091611cab91611bef90859063ffffffff600160481b9091048116906120c416565b9050611cb8893083611da8565b80606b6000828254611cca91906128ba565b909155508490508015611ce0575060645460ff16155b15611d0457606754606b54611cfe916001600160a01b03169061218f565b6000606b555b60648054600091611d2b91611bef90869063ffffffff600160681b9091048116906120c416565b9050611d388a3083611da8565b611d4c611d458383612233565b8990612292565b935050505b505b838015611d63575060645460ff16155b8015611d6d575082155b8015611d8757506066546001600160a01b03888116911614155b15611d9457611d946122d4565b611d9f878783611da8565b50505050505050565b6001600160a01b038316611e0c5760405162461bcd60e51b815260206004820152602560248201527f45524332303a207472616e736665722066726f6d20746865207a65726f206164604482015264647265737360d81b6064820152608401610a47565b6001600160a01b038216611e6e5760405162461bcd60e51b815260206004820152602360248201527f45524332303a207472616e7366657220746f20746865207a65726f206164647260448201526265737360e81b6064820152608401610a47565b6001600160a01b03831660009081526032602052604090205481811015611ee65760405162461bcd60e51b815260206004820152602660248201527f45524332303a207472616e7366657220616d6f756e7420657863656564732062604482015265616c616e636560d01b6064820152608401610a47565b6001600160a01b03808516600090815260326020526040808220858503905591851681529081208054849290611f1d9084906128ba565b92505081905550826001600160a01b0316846001600160a01b03167fddf252ad1be2c89b69c2b068fc378daa952ba7f163c4a11628f55a4df523b3ef84604051611f6991815260200190565b60405180910390a36118ec565b6001600160a01b038216611fd65760405162461bcd60e51b815260206004820152602160248201527f45524332303a206275726e2066726f6d20746865207a65726f206164647265736044820152607360f81b6064820152608401610a47565b6001600160a01b0382166000908152603260205260409020548181101561204a5760405162461bcd60e51b815260206004820152602260248201527f45524332303a206275726e20616d6f756e7420657863656564732062616c616e604482015261636560f01b6064820152608401610a47565b6001600160a01b0383166000908152603260205260408120838303905560348054849290612079908490612942565b90915550506040518281526000906001600160a01b038516907fddf252ad1be2c89b69c2b068fc378daa952ba7f163c4a11628f55a4df523b3ef9060200160405180910390a3505050565b6000826000036120d657506000610a17565b60006120e28385612959565b9050826120ef8583612978565b146121465760405162461bcd60e51b815260206004820152602160248201527f536166654d6174683a206d756c7469706c69636174696f6e206f766572666c6f6044820152607760f81b6064820152608401610a47565b9392505050565b600061214683836040518060400160405280601a81526020017f536166654d6174683a206469766973696f6e206279207a65726f0000000000008152506123e3565b60648054600164ffffffffff198216811790925561010060ff199091169091170463ffffffff16476121c08361241a565b60006121cc4783612292565b6040519091506001600160a01b0386169082156108fc029083906000818181858888f19350505050158015612205573d6000803e3d6000fd5b50506064805464ffffffffff191661010063ffffffff949094169390930260ff191692909217909155505050565b60008061224083856128ba565b9050838110156121465760405162461bcd60e51b815260206004820152601b60248201527f536166654d6174683a206164646974696f6e206f766572666c6f7700000000006044820152606401610a47565b600061214683836040518060400160405280601e81526020017f536166654d6174683a207375627472616374696f6e206f766572666c6f770000815250612574565b60648054600164ffffffffff19821681179092553060009081526032602052604081205461010060ff199093169093179190910463ffffffff16919050606b5481106123ba57606b54612328908290612292565b905060655481106123ba5780600061234182600261214d565b9050600061234f8383612292565b90504761235b8361241a565b60006123674783612292565b905061237383826125a5565b60408051858152602081018390529081018490527f17bbfb9a6069321b6ded73bd96327c9e6b7212a5cd51ff219cd61370acafb5619060600160405180910390a150505050505b506064805464ffffffffff191661010063ffffffff939093169290920260ff1916919091179055565b600081836124045760405162461bcd60e51b8152600401610a479190612692565b5060006124118486612978565b95945050505050565b604080516002808252606082018352600092602083019080368337019050509050308160008151811061244f5761244f61299a565b6001600160a01b03928316602091820292909201810191909152606954604080516315ab88c960e31b81529051919093169263ad5c46489260048083019391928290030181865afa1580156124a8573d6000803e3d6000fd5b505050506040513d601f19601f820116820180604052508101906124cc9190612908565b816001815181106124df576124df61299a565b6001600160a01b039283166020918202929092010152606954612505913091168461165d565b60695460405163791ac94760e01b81526001600160a01b039091169063791ac9479061253e9085906000908690309042906004016129b0565b600060405180830381600087803b15801561255857600080fd5b505af115801561256c573d6000803e3d6000fd5b505050505050565b600081848411156125985760405162461bcd60e51b8152600401610a479190612692565b5060006124118486612942565b6069546125bd9030906001600160a01b03168461165d565b60695460665460405163f305d71960e01b81523060048201526024810185905260006044820181905260648201526001600160a01b0391821660848201524260a482015291169063f305d71990839060c40160606040518083038185885af115801561262d573d6000803e3d6000fd5b50505050506040513d601f19601f820116820180604052508101906126529190612a21565b505060408051848152602081018490527f38f8a0c92f4c5b0b6877f878cb4c0c8d348a47b76d716c8e78f425043df9515b92500160405180910390a15050565b600060208083528351808285015260005b818110156126bf578581018301518582016040015282016126a3565b818111156126d1576000604083870101525b50601f01601f1916929092016040019392505050565b6001600160a01b03811681146126fc57600080fd5b50565b6000806040838503121561271257600080fd5b823561271d816126e7565b946020939093013593505050565b63ffffffff811681146126fc57600080fd5b60006020828403121561274f57600080fd5b81356121468161272b565b60008060006060848603121561276f57600080fd5b833561277a816126e7565b9250602084013561278a816126e7565b929592945050506040919091013590565b600080604083850312156127ae57600080fd5b82356127b9816126e7565b915060208301356127c9816126e7565b809150509250929050565b6000602082840312156127e657600080fd5b8135612146816126e7565b80151581146126fc57600080fd5b60006020828403121561281157600080fd5b8135612146816127f1565b60006020828403121561282e57600080fd5b5035919050565b600181811c9082168061284957607f821691505b60208210810361286957634e487b7160e01b600052602260045260246000fd5b50919050565b6020808252818101527f4f776e61626c653a2063616c6c6572206973206e6f7420746865206f776e6572604082015260600190565b634e487b7160e01b600052601160045260246000fd5b600082198211156128cd576128cd6128a4565b500190565b6000602082840312156128e457600080fd5b5051919050565b6000602082840312156128fd57600080fd5b8151612146816127f1565b60006020828403121561291a57600080fd5b8151612146816126e7565b60006020828403121561293757600080fd5b81516121468161272b565b600082821015612954576129546128a4565b500390565b6000816000190483118215151615612973576129736128a4565b500290565b60008261299557634e487b7160e01b600052601260045260246000fd5b500490565b634e487b7160e01b600052603260045260246000fd5b600060a082018783526020878185015260a0604085015281875180845260c086019150828901935060005b81811015612a005784516001600160a01b0316835293830193918301916001016129db565b50506001600160a01b03969096166060850152505050608001529392505050565b600080600060608486031215612a3657600080fd5b835192506020840151915060408401519050925092509256fea264697066735822122070300e711c69e042ed3e3ae20e9fcbaf0be3ebbbde2b7047688a77de6cf807b564736f6c634300080d00334f776e61626c653a2063616c6c6572206973206e6f7420746865206f776e6572",
  "linkReferences": {},
  "deployedLinkReferences": {}
}