{
  "_format": "hh-sol-artifact-1",
  "contractName": "FeeManager",
  "sourceName": "contracts/FeeManager.sol",
  "abi": [
    {
      "inputs": [],
      "stateMutability": "nonpayable",
      "type": "constructor"
    },
    {
      "inputs": [
        {
          "internalType": "address",
          "name": "_manager",
          "type": "address"
        }
      ],
      "name": "bindManager",
      "outputs": [],
      "stateMutability": "nonpayable",
      "type": "function"
    },
    {
      "inputs": [
        {
          "internalType": "address",
          "name": "_router",
          "type": "address"
        }
      ],
      "name": "bindRouter",
      "outputs": [],
      "stateMutability": "nonpayable",
      "type": "function"
    },
    {
      "inputs": [
        {
          "internalType": "address",
          "name": "_token",
          "type": "address"
        }
      ],
      "name": "bindToken",
      "outputs": [],
      "stateMutability": "nonpayable",
      "type": "function"
    },
    {
      "inputs": [
        {
          "internalType": "address",
          "name": "to",
          "type": "address"
        },
        {
          "internalType": "uint256",
          "name": "amount",
          "type": "uint256"
        }
      ],
      "name": "claim",
      "outputs": [],
      "stateMutability": "nonpayable",
      "type": "function"
    },
    {
      "inputs": [],
      "name": "countOperator",
      "outputs": [
        {
          "internalType": "uint256",
          "name": "",
          "type": "uint256"
        }
      ],
      "stateMutability": "view",
      "type": "function"
    },
    {
      "inputs": [
        {
          "internalType": "bool",
          "name": "_enabled",
          "type": "bool"
        }
      ],
      "name": "enableTransferETH",
      "outputs": [],
      "stateMutability": "nonpayable",
      "type": "function"
    },
    {
      "inputs": [],
      "name": "enabledTransferETH",
      "outputs": [
        {
          "internalType": "bool",
          "name": "",
          "type": "bool"
        }
      ],
      "stateMutability": "view",
      "type": "function"
    },
    {
      "inputs": [
        {
          "internalType": "uint256",
          "name": "_amount",
          "type": "uint256"
        }
      ],
      "name": "getAmountETH",
      "outputs": [
        {
          "internalType": "uint256",
          "name": "",
          "type": "uint256"
        }
      ],
      "stateMutability": "view",
      "type": "function"
    },
    {
      "inputs": [
        {
          "internalType": "uint256",
          "name": "_amount",
          "type": "uint256"
        }
      ],
      "name": "getAmountETH1",
      "outputs": [
        {
          "internalType": "uint256",
          "name": "",
          "type": "uint256"
        }
      ],
      "stateMutability": "view",
      "type": "function"
    },
    {
      "inputs": [
        {
          "internalType": "uint256",
          "name": "_amount",
          "type": "uint256"
        }
      ],
      "name": "getAmountETH2",
      "outputs": [
        {
          "internalType": "uint256",
          "name": "",
          "type": "uint256"
        }
      ],
      "stateMutability": "view",
      "type": "function"
    },
    {
      "inputs": [
        {
          "internalType": "uint256",
          "name": "_amount",
          "type": "uint256"
        }
      ],
      "name": "getClaimFee",
      "outputs": [
        {
          "internalType": "uint256",
          "name": "",
          "type": "uint256"
        }
      ],
      "stateMutability": "view",
      "type": "function"
    },
    {
      "inputs": [
        {
          "internalType": "string",
          "name": "tierNameFrom",
          "type": "string"
        },
        {
          "internalType": "string",
          "name": "tierNameTo",
          "type": "string"
        }
      ],
      "name": "getRateUpgradeFee",
      "outputs": [
        {
          "internalType": "uint32",
          "name": "",
          "type": "uint32"
        }
      ],
      "stateMutability": "view",
      "type": "function"
    },
    {
      "inputs": [
        {
          "internalType": "uint256",
          "name": "_amount",
          "type": "uint256"
        }
      ],
      "name": "getTransferFee",
      "outputs": [
        {
          "internalType": "uint256",
          "name": "",
          "type": "uint256"
        }
      ],
      "stateMutability": "view",
      "type": "function"
    },
    {
      "inputs": [],
      "name": "manager",
      "outputs": [
        {
          "internalType": "address",
          "name": "",
          "type": "address"
        }
      ],
      "stateMutability": "view",
      "type": "function"
    },
    {
      "inputs": [
        {
          "internalType": "uint256",
          "name": "",
          "type": "uint256"
        }
      ],
      "name": "operators",
      "outputs": [
        {
          "internalType": "address",
          "name": "",
          "type": "address"
        }
      ],
      "stateMutability": "view",
      "type": "function"
    },
    {
      "inputs": [],
      "name": "owner",
      "outputs": [
        {
          "internalType": "address",
          "name": "",
          "type": "address"
        }
      ],
      "stateMutability": "view",
      "type": "function"
    },
    {
      "inputs": [],
      "name": "rateClaimFee",
      "outputs": [
        {
          "internalType": "uint32",
          "name": "",
          "type": "uint32"
        }
      ],
      "stateMutability": "view",
      "type": "function"
    },
    {
      "inputs": [],
      "name": "rateOperatorFee",
      "outputs": [
        {
          "internalType": "uint32",
          "name": "",
          "type": "uint32"
        }
      ],
      "stateMutability": "view",
      "type": "function"
    },
    {
      "inputs": [],
      "name": "rateRewardsPoolFee",
      "outputs": [
        {
          "internalType": "uint32",
          "name": "",
          "type": "uint32"
        }
      ],
      "stateMutability": "view",
      "type": "function"
    },
    {
      "inputs": [],
      "name": "rateTransferFee",
      "outputs": [
        {
          "internalType": "uint32",
          "name": "",
          "type": "uint32"
        }
      ],
      "stateMutability": "view",
      "type": "function"
    },
    {
      "inputs": [],
      "name": "rateTreasuryFee",
      "outputs": [
        {
          "internalType": "uint32",
          "name": "",
          "type": "uint32"
        }
      ],
      "stateMutability": "view",
      "type": "function"
    },
    {
      "inputs": [
        {
          "internalType": "bytes32",
          "name": "",
          "type": "bytes32"
        }
      ],
      "name": "rateUpgradeFee",
      "outputs": [
        {
          "internalType": "uint32",
          "name": "",
          "type": "uint32"
        }
      ],
      "stateMutability": "view",
      "type": "function"
    },
    {
      "inputs": [
        {
          "internalType": "address",
          "name": "account",
          "type": "address"
        }
      ],
      "name": "removeOperator",
      "outputs": [],
      "stateMutability": "nonpayable",
      "type": "function"
    },
    {
      "inputs": [],
      "name": "router",
      "outputs": [
        {
          "internalType": "contract IUniswapV2Router02",
          "name": "",
          "type": "address"
        }
      ],
      "stateMutability": "view",
      "type": "function"
    },
    {
      "inputs": [
        {
          "internalType": "address",
          "name": "account",
          "type": "address"
        }
      ],
      "name": "setOperator",
      "outputs": [],
      "stateMutability": "nonpayable",
      "type": "function"
    },
    {
      "inputs": [
        {
          "internalType": "uint32",
          "name": "_rateClaimFee",
          "type": "uint32"
        }
      ],
      "name": "setRateClaimFee",
      "outputs": [],
      "stateMutability": "nonpayable",
      "type": "function"
    },
    {
      "inputs": [
        {
          "internalType": "uint32",
          "name": "_rateOperatorFee",
          "type": "uint32"
        }
      ],
      "name": "setRateOperatorFee",
      "outputs": [],
      "stateMutability": "nonpayable",
      "type": "function"
    },
    {
      "inputs": [
        {
          "internalType": "uint32",
          "name": "_rateRewardsPoolFee",
          "type": "uint32"
        }
      ],
      "name": "setRateRewardsPoolFee",
      "outputs": [],
      "stateMutability": "nonpayable",
      "type": "function"
    },
    {
      "inputs": [
        {
          "internalType": "uint32",
          "name": "_rateTransferFee",
          "type": "uint32"
        }
      ],
      "name": "setRateTransferFee",
      "outputs": [],
      "stateMutability": "nonpayable",
      "type": "function"
    },
    {
      "inputs": [
        {
          "internalType": "uint32",
          "name": "_rateTreasuryFee",
          "type": "uint32"
        }
      ],
      "name": "setRateTreasuryFee",
      "outputs": [],
      "stateMutability": "nonpayable",
      "type": "function"
    },
    {
      "inputs": [
        {
          "internalType": "string",
          "name": "tierNameFrom",
          "type": "string"
        },
        {
          "internalType": "string",
          "name": "tierNameTo",
          "type": "string"
        },
        {
          "internalType": "uint32",
          "name": "value",
          "type": "uint32"
        }
      ],
      "name": "setRateUpgradeFee",
      "outputs": [],
      "stateMutability": "nonpayable",
      "type": "function"
    },
    {
      "inputs": [
        {
          "internalType": "address",
          "name": "account",
          "type": "address"
        }
      ],
      "name": "setTreasury",
      "outputs": [],
      "stateMutability": "nonpayable",
      "type": "function"
    },
    {
      "inputs": [],
      "name": "token",
      "outputs": [
        {
          "internalType": "contract IERC20",
          "name": "",
          "type": "address"
        }
      ],
      "stateMutability": "view",
      "type": "function"
    },
    {
      "inputs": [
        {
          "internalType": "address",
          "name": "to",
          "type": "address"
        },
        {
          "internalType": "uint256",
          "name": "amount",
          "type": "uint256"
        }
      ],
      "name": "transfer",
      "outputs": [],
      "stateMutability": "nonpayable",
      "type": "function"
    },
    {
      "inputs": [
        {
          "internalType": "address",
          "name": "recipient",
          "type": "address"
        },
        {
          "internalType": "uint256",
          "name": "amount",
          "type": "uint256"
        }
      ],
      "name": "transferETH",
      "outputs": [],
      "stateMutability": "nonpayable",
      "type": "function"
    },
    {
      "inputs": [],
      "name": "transferETHToOperator",
      "outputs": [],
      "stateMutability": "payable",
      "type": "function"
    },
    {
      "inputs": [
        {
          "internalType": "address",
          "name": "_sender",
          "type": "address"
        },
        {
          "internalType": "uint256",
          "name": "_fee",
          "type": "uint256"
        }
      ],
      "name": "transferFee",
      "outputs": [],
      "stateMutability": "nonpayable",
      "type": "function"
    },
    {
      "inputs": [
        {
          "internalType": "uint256",
          "name": "_fee",
          "type": "uint256"
        }
      ],
      "name": "transferFeeToOperator",
      "outputs": [],
      "stateMutability": "nonpayable",
      "type": "function"
    },
    {
      "inputs": [
        {
          "internalType": "address",
          "name": "from",
          "type": "address"
        },
        {
          "internalType": "address",
          "name": "to",
          "type": "address"
        },
        {
          "internalType": "uint256",
          "name": "amount",
          "type": "uint256"
        }
      ],
      "name": "transferFrom",
      "outputs": [],
      "stateMutability": "nonpayable",
      "type": "function"
    },
    {
      "inputs": [
        {
          "internalType": "address",
          "name": "_sender",
          "type": "address"
        },
        {
          "internalType": "uint256",
          "name": "_fee",
          "type": "uint256"
        },
        {
          "internalType": "address",
          "name": "_token",
          "type": "address"
        }
      ],
      "name": "transferTokenToOperator",
      "outputs": [],
      "stateMutability": "nonpayable",
      "type": "function"
    },
    {
      "inputs": [],
      "name": "treasury",
      "outputs": [
        {
          "internalType": "address",
          "name": "",
          "type": "address"
        }
      ],
      "stateMutability": "view",
      "type": "function"
    },
    {
      "inputs": [
        {
          "internalType": "uint256",
          "name": "amount",
          "type": "uint256"
        }
      ],
      "name": "withdraw",
      "outputs": [],
      "stateMutability": "nonpayable",
      "type": "function"
    },
    {
      "inputs": [],
      "name": "withdrawETH",
      "outputs": [],
      "stateMutability": "nonpayable",
      "type": "function"
    }
  ],
  "bytecode": "0x608060405234801561001057600080fd5b50600780546001600160a01b0319163317905560068054600a805463ffffffff1916610bb81790556001600160881b0319166d03e8000007d000001b5800000000179055612976806100636000396000f3fe60806040526004361061025c5760003560e01c8063919344f311610144578063c76bf8ab116100b6578063e28d49061161007a578063e28d49061461073c578063f0f442601461075c578063f5e383ce1461077c578063f887ea40146107a1578063fc0c546a146107c1578063fdf78ce7146107e157600080fd5b8063c76bf8ab146106aa578063cb426605146106c7578063d60169e8146106e7578063debf6a9114610707578063e086e5ec1461072757600080fd5b8063a9059cbb11610108578063a9059cbb146105f4578063aad3ec9614610614578063ac8a584a14610634578063b3ab15fb14610654578063bc23c73014610674578063bf363b181461068a57600080fd5b8063919344f3146105505780639918d786146105705780639cc0a471146105905780639f439f4d146105b0578063a8b51ca4146105d057600080fd5b806354144a38116101dd5780637b1a4909116101a15780637b1a49091461046c578063818b90481461048c57806385569671146104ac57806389c33ed6146104cc5780638ce4f3ae146104ff5780638da5cb5b1461053057600080fd5b806354144a38146103e457806356c1e9491461040457806361d027b3146104245780636c47968a146104445780637a805d7b1461046457600080fd5b80633ff5aa02116102245780633ff5aa0214610328578063481c6a751461034857806348cf9c67146103805780634b88bce6146103a05780634bc580f0146103c457600080fd5b806323b872dd146102615780632b22c940146102835780632e1a7d4d146102ba5780632f135511146102da5780633c72b92314610308575b600080fd5b34801561026d57600080fd5b5061028161027c36600461226e565b610801565b005b34801561028f57600080fd5b50600a546102a09063ffffffff1681565b60405163ffffffff90911681526020015b60405180910390f35b3480156102c657600080fd5b506102816102d53660046122af565b6108b1565b3480156102e657600080fd5b506102fa6102f53660046122af565b610a0e565b6040519081526020016102b1565b34801561031457600080fd5b506102816103233660046122c8565b610a59565b34801561033457600080fd5b506102816103433660046122c8565b610b0f565b34801561035457600080fd5b50600854610368906001600160a01b031681565b6040516001600160a01b0390911681526020016102b1565b34801561038c57600080fd5b5061028161039b3660046123ae565b610b5b565b3480156103ac57600080fd5b506006546102a090600160601b900463ffffffff1681565b3480156103d057600080fd5b506102fa6103df3660046122af565b610bdc565b3480156103f057600080fd5b506102816103ff3660046122af565b610c06565b34801561041057600080fd5b506102fa61041f3660046122af565b610d65565b34801561043057600080fd5b50600254610368906001600160a01b031681565b34801561045057600080fd5b5061028161045f366004612426565b610d7f565b610281610ff6565b34801561047857600080fd5b5061028161048736600461245d565b61119c565b34801561049857600080fd5b506102816104a7366004612489565b6113a9565b3480156104b857600080fd5b506102a06104c73660046124a6565b611480565b3480156104d857600080fd5b506102a06104e73660046122af565b60096020526000908152604090205463ffffffff1681565b34801561050b57600080fd5b5060065461052090600160801b900460ff1681565b60405190151581526020016102b1565b34801561053c57600080fd5b50600754610368906001600160a01b031681565b34801561055c57600080fd5b506102fa61056b3660046122af565b6114c9565b34801561057c57600080fd5b5061028161058b366004612489565b61154f565b34801561059c57600080fd5b506102816105ab3660046122c8565b61162b565b3480156105bc57600080fd5b506102fa6105cb3660046122af565b611677565b3480156105dc57600080fd5b506006546102a090600160401b900463ffffffff1681565b34801561060057600080fd5b5061028161060f36600461245d565b611810565b34801561062057600080fd5b5061028161062f36600461245d565b6118b1565b34801561064057600080fd5b5061028161064f3660046122c8565b611b76565b34801561066057600080fd5b5061028161066f3660046122c8565b611bfb565b34801561068057600080fd5b506102fa60055481565b34801561069657600080fd5b506102816106a536600461245d565b611cbb565b3480156106b657600080fd5b506006546102a09063ffffffff1681565b3480156106d357600080fd5b506102816106e2366004612518565b611f08565b3480156106f357600080fd5b50610281610702366004612489565b611f50565b34801561071357600080fd5b50610281610722366004612489565b611fc0565b34801561073357600080fd5b50610281612067565b34801561074857600080fd5b506103686107573660046122af565b612122565b34801561076857600080fd5b506102816107773660046122c8565b61214c565b34801561078857600080fd5b506006546102a090640100000000900463ffffffff1681565b3480156107ad57600080fd5b50600154610368906001600160a01b031681565b3480156107cd57600080fd5b50600054610368906001600160a01b031681565b3480156107ed57600080fd5b506102816107fc366004612489565b6121e9565b6008546001600160a01b031633146108345760405162461bcd60e51b815260040161082b90612535565b60405180910390fd5b6000546040516323b872dd60e01b81526001600160a01b03909116906323b872dd906108689086908690869060040161257a565b6020604051808303816000875af1158015610887573d6000803e3d6000fd5b505050506040513d601f19601f820116820180604052508101906108ab919061259e565b50505050565b6007546001600160a01b031633146108db5760405162461bcd60e51b815260040161082b906125bb565b6000546040516370a0823160e01b815230600482015282916001600160a01b0316906370a0823190602401602060405180830381865afa158015610923573d6000803e3d6000fd5b505050506040513d601f19601f8201168201806040525081019061094791906125fe565b10156109955760405162461bcd60e51b815260206004820152601e60248201527f57697468647261773a20496e737566666963656e742062616c616e63652e0000604482015260640161082b565b60005460405163a9059cbb60e01b8152336004820152602481018390526001600160a01b039091169063a9059cbb906044016020604051808303816000875af11580156109e6573d6000803e3d6000fd5b505050506040513d601f19601f82011682018060405250810190610a0a919061259e565b5050565b6001546000906001600160a01b0316610a2957506000919050565b6000610a34836114c9565b90506000610a4184611677565b905080821115610a52575092915050565b9392505050565b6007546001600160a01b03163314610a835760405162461bcd60e51b815260040161082b906125bb565b6001600160a01b038116610aed5760405162461bcd60e51b815260206004820152602b60248201527f4665654d616e616765723a206e6577206d616e6167657220697320746865207a60448201526a65726f206164647265737360a81b606482015260840161082b565b600880546001600160a01b0319166001600160a01b0392909216919091179055565b6007546001600160a01b03163314610b395760405162461bcd60e51b815260040161082b906125bb565b600080546001600160a01b0319166001600160a01b0392909216919091179055565b6007546001600160a01b03163314610b855760405162461bcd60e51b815260040161082b906125bb565b60008383604051602001610b9a929190612652565b60408051808303601f190181529181528151602092830120600090815260099092529020805463ffffffff191663ffffffff9390931692909217909155505050565b600a5460009061271090610bf69063ffffffff1684612685565b610c0091906126a4565b92915050565b6008546001600160a01b03163314610c305760405162461bcd60e51b815260040161082b90612535565b60055415610d6257600060055482610c4891906126a4565b90506000805b60035463ffffffff821610156108ab576004600060038363ffffffff1681548110610c7b57610c7b6126c6565b60009182526020808320909101546001600160a01b0316835282019290925260400190205460ff1615610d50576001600554610cb791906126dc565b8263ffffffff1603610cff57610cfa60038263ffffffff1681548110610cdf57610cdf6126c6565b6000918252602090912001546001600160a01b03168561119c565b6108ab565b610d3660038263ffffffff1681548110610d1b57610d1b6126c6565b6000918252602090912001546001600160a01b03168461119c565b610d4083856126dc565b935081610d4c816126f3565b9250505b80610d5a816126f3565b915050610c4e565b50565b60065460009061271090610bf69063ffffffff1684612685565b6008546001600160a01b03163314610da95760405162461bcd60e51b815260040161082b90612535565b60055415610fc157600060055483610dc191906126a4565b90506000805b60035463ffffffff82161015610fb9576004600060038363ffffffff1681548110610df457610df46126c6565b60009182526020808320909101546001600160a01b0316835282019290925260400190205460ff1615610fa7576001600554610e3091906126dc565b8263ffffffff1603610ee757836001600160a01b03166323b872dd8760038463ffffffff1681548110610e6557610e656126c6565b6000918252602090912001546040516001600160e01b031960e085901b168152610e9e92916001600160a01b0316908a9060040161257a565b6020604051808303816000875af1158015610ebd573d6000803e3d6000fd5b505050506040513d601f19601f82011682018060405250810190610ee1919061259e565b50610fb9565b836001600160a01b03166323b872dd8760038463ffffffff1681548110610f1057610f106126c6565b6000918252602090912001546040516001600160e01b031960e085901b168152610f4992916001600160a01b031690889060040161257a565b6020604051808303816000875af1158015610f68573d6000803e3d6000fd5b505050506040513d601f19601f82011682018060405250810190610f8c919061259e565b50610f9783866126dc565b945081610fa3816126f3565b9250505b80610fb1816126f3565b915050610dc7565b505050505050565b6040516323b872dd60e01b81526001600160a01b038216906323b872dd906108689086903090879060040161257a565b505050565b6008546001600160a01b031633146110205760405162461bcd60e51b815260040161082b90612535565b6005541561119a57600554349060009061103a90836126a4565b90506000805b60035463ffffffff821610156108ab576004600060038363ffffffff168154811061106d5761106d6126c6565b60009182526020808320909101546001600160a01b0316835282019290925260400190205460ff16156111885760016005546110a991906126dc565b8263ffffffff16036111145760038163ffffffff16815481106110ce576110ce6126c6565b60009182526020822001546040516001600160a01b039091169186156108fc02918791818181858888f1935050505015801561110e573d6000803e3d6000fd5b506108ab565b60038163ffffffff168154811061112d5761112d6126c6565b60009182526020822001546040516001600160a01b039091169185156108fc02918691818181858888f1935050505015801561116d573d6000803e3d6000fd5b5061117883856126dc565b935081611184816126f3565b9250505b80611192816126f3565b915050611040565b565b6008546001600160a01b031633146111c65760405162461bcd60e51b815260040161082b90612535565b600654600160801b900460ff161561139f5760408051600280825260608201835260009260208301908036833750506000805483519394506001600160a01b031692849250611217576112176126c6565b6001600160a01b03928316602091820292909201810191909152600154604080516315ab88c960e31b81529051919093169263ad5c46489260048083019391928290030181865afa158015611270573d6000803e3d6000fd5b505050506040513d601f19601f820116820180604052508101906112949190612716565b816001815181106112a7576112a76126c6565b6001600160a01b03928316602091820292909201015260005460015460405163095ea7b360e01b815290831660048201526024810185905291169063095ea7b3906044016020604051808303816000875af115801561130a573d6000803e3d6000fd5b505050506040513d601f19601f8201168201806040525081019061132e919061259e565b5060015460405163791ac94760e01b81526001600160a01b039091169063791ac94790611368908590600090869089904290600401612777565b600060405180830381600087803b15801561138257600080fd5b505af1158015611396573d6000803e3d6000fd5b50505050505050565b610a0a8282611810565b6007546001600160a01b031633146113d35760405162461bcd60e51b815260040161082b906125bb565b60065463ffffffff808316600160601b90920416036114045760405162461bcd60e51b815260040161082b906127b3565b60065463ffffffff640100000000820481169161142a91600160401b90910416836127dc565b61143491906127dc565b63ffffffff166127101461145a5760405162461bcd60e51b815260040161082b90612804565b6006805463ffffffff909216600160601b0263ffffffff60601b19909216919091179055565b6000808383604051602001611496929190612652565b60408051808303601f1901815291815281516020928301206000908152600990925290205463ffffffff16949350505050565b600080546001600160a01b03166114e257506000919050565b600054604051635c19521760e01b8152600481018490526001600160a01b0390911690635c19521790602401602060405180830381865afa15801561152b573d6000803e3d6000fd5b505050506040513d601f19601f82011682018060405250810190610c0091906125fe565b6007546001600160a01b031633146115795760405162461bcd60e51b815260040161082b906125bb565b60065463ffffffff808316600160401b90920416036115aa5760405162461bcd60e51b815260040161082b906127b3565b60065463ffffffff64010000000082048116916115d0918491600160601b9004166127dc565b6115da91906127dc565b63ffffffff16612710146116005760405162461bcd60e51b815260040161082b90612804565b6006805463ffffffff909216600160401b026bffffffff000000000000000019909216919091179055565b6007546001600160a01b031633146116555760405162461bcd60e51b815260040161082b906125bb565b600180546001600160a01b0319166001600160a01b0392909216919091179055565b6001546000906001600160a01b031661169257506000919050565b60408051600280825260608201835260009260208301908036833750506000805483519394506001600160a01b0316928492506116d1576116d16126c6565b6001600160a01b03928316602091820292909201810191909152600154604080516315ab88c960e31b81529051919093169263ad5c46489260048083019391928290030181865afa15801561172a573d6000803e3d6000fd5b505050506040513d601f19601f8201168201806040525081019061174e9190612716565b81600181518110611761576117616126c6565b6001600160a01b03928316602091820292909201015260015460405163d06ca61f60e01b8152600092919091169063d06ca61f906117a59087908690600401612834565b600060405180830381865afa1580156117c2573d6000803e3d6000fd5b505050506040513d6000823e601f3d908101601f191682016040526117ea919081019061284d565b9050806001815181106117ff576117ff6126c6565b602002602001015192505050919050565b6008546001600160a01b0316331461183a5760405162461bcd60e51b815260040161082b90612535565b60005460405163a9059cbb60e01b81526001600160a01b038481166004830152602482018490529091169063a9059cbb906044016020604051808303816000875af115801561188d573d6000803e3d6000fd5b505050506040513d601f19601f82011682018060405250810190610ff1919061259e565b6008546001600160a01b031633146118db5760405162461bcd60e51b815260040161082b90612535565b600a5460009063ffffffff1615611b3757600a54600090612710906119069063ffffffff1685612685565b61191091906126a4565b9050606460008054906101000a90046001600160a01b03166001600160a01b03166389afc0f16040518163ffffffff1660e01b8152600401602060405180830381865afa158015611965573d6000803e3d6000fd5b505050506040513d601f19601f8201168201806040525081019061198991906128f3565b6119999063ffffffff1683612685565b6119a391906126a4565b91508115611acb576119b482610c06565b6000546001600160a01b031663a9059cbb816119d085856126dc565b6040516001600160e01b031960e085901b1681526001600160a01b03909216600483015260248201526044016020604051808303816000875af1158015611a1b573d6000803e3d6000fd5b505050506040513d601f19601f82011682018060405250810190611a3f919061259e565b506000546001600160a01b031663a9059cbb85611a5c84876126dc565b6040516001600160e01b031960e085901b1681526001600160a01b03909216600483015260248201526044016020604051808303816000875af1158015611aa7573d6000803e3d6000fd5b505050506040513d601f19601f8201168201806040525081019061110e919061259e565b6000546040516347f4abdb60e01b81526001600160a01b03909116906347f4abdb90611aff9030908890889060040161257a565b600060405180830381600087803b158015611b1957600080fd5b505af1158015611b2d573d6000803e3d6000fd5b5050505050505050565b8015610ff15760005460405163a9059cbb60e01b81526001600160a01b038581166004830152602482018590529091169063a9059cbb90604401610868565b6007546001600160a01b03163314611ba05760405162461bcd60e51b815260040161082b906125bb565b6001600160a01b03811660009081526004602052604090205460ff161515600103610d62576001600160a01b0381166000908152600460205260408120805460ff191690556005805491611bf383612910565b919050555050565b6007546001600160a01b03163314611c255760405162461bcd60e51b815260040161082b906125bb565b6001600160a01b03811660009081526004602052604081205460ff1615159003610d62576003805460018082019092557fc2575a0e9e593c00f959f8c92f12db2869c3395a3b0502d05e2516446f71f85b0180546001600160a01b0319166001600160a01b0384169081179091556000908152600460205260408120805460ff19169092179091556005805491611bf383612927565b6008546001600160a01b03163314611ce55760405162461bcd60e51b815260040161082b90612535565b80600003611d3f5760405162461bcd60e51b815260206004820152602160248201527f5472616e7366657220746f6b656e20616d6f756e742063616e2774207a65726f6044820152602160f81b606482015260840161082b565b6002546001600160a01b0316611d975760405162461bcd60e51b815260206004820152601c60248201527f547265617375727920616464726573732063616e2774205a65726f2100000000604482015260640161082b565b6001546001600160a01b0316611def5760405162461bcd60e51b815260206004820152601e60248201527f526f757465722061646472657373206d75737420626520736574313233210000604482015260640161082b565b60065460009061271090611e1090600160401b900463ffffffff1684612685565b611e1a91906126a4565b6000546040516323b872dd60e01b81529192506001600160a01b0316906323b872dd90611e4f9086903090879060040161257a565b6020604051808303816000875af1158015611e6e573d6000803e3d6000fd5b505050506040513d601f19601f82011682018060405250810190611e92919061259e565b50600254611ea9906001600160a01b03168261119c565b60055415610ff15760065460009061271090611ed390640100000000900463ffffffff1685612685565b611edd91906126a4565b9050600081611eec84866126dc565b611ef691906126dc565b9050611f0181610c06565b5050505050565b6007546001600160a01b03163314611f325760405162461bcd60e51b815260040161082b906125bb565b60068054911515600160801b0260ff60801b19909216919091179055565b6007546001600160a01b03163314611f7a5760405162461bcd60e51b815260040161082b906125bb565b60065463ffffffff808316911603611fa45760405162461bcd60e51b815260040161082b906127b3565b6006805463ffffffff191663ffffffff92909216919091179055565b6007546001600160a01b03163314611fea5760405162461bcd60e51b815260040161082b906125bb565b600654819061200f9063ffffffff600160401b8204811691600160601b9004166127dc565b61201991906127dc565b63ffffffff166127101461203f5760405162461bcd60e51b815260040161082b90612804565b6006805463ffffffff9092166401000000000267ffffffff0000000019909216919091179055565b6007546001600160a01b031633146120915760405162461bcd60e51b815260040161082b906125bb565b6040514790600090339083908381818185875af1925050503d80600081146120d5576040519150601f19603f3d011682016040523d82523d6000602084013e6120da565b606091505b5050905080610a0a5760405162461bcd60e51b81526020600482015260146024820152732330b4b632b2103a379039b2b7321022ba3432b960611b604482015260640161082b565b6003818154811061213257600080fd5b6000918252602090912001546001600160a01b0316905081565b6007546001600160a01b031633146121765760405162461bcd60e51b815260040161082b906125bb565b6002546001600160a01b038083169116036121c75760405162461bcd60e51b81526020600482015260116024820152705468652073616d65206163636f756e742160781b604482015260640161082b565b600280546001600160a01b0319166001600160a01b0392909216919091179055565b6007546001600160a01b031633146122135760405162461bcd60e51b815260040161082b906125bb565b600a5463ffffffff80831691160361223d5760405162461bcd60e51b815260040161082b906127b3565b600a805463ffffffff191663ffffffff92909216919091179055565b6001600160a01b0381168114610d6257600080fd5b60008060006060848603121561228357600080fd5b833561228e81612259565b9250602084013561229e81612259565b929592945050506040919091013590565b6000602082840312156122c157600080fd5b5035919050565b6000602082840312156122da57600080fd5b8135610a5281612259565b634e487b7160e01b600052604160045260246000fd5b604051601f8201601f1916810167ffffffffffffffff81118282101715612324576123246122e5565b604052919050565b600082601f83011261233d57600080fd5b813567ffffffffffffffff811115612357576123576122e5565b61236a601f8201601f19166020016122fb565b81815284602083860101111561237f57600080fd5b816020850160208301376000918101602001919091529392505050565b63ffffffff81168114610d6257600080fd5b6000806000606084860312156123c357600080fd5b833567ffffffffffffffff808211156123db57600080fd5b6123e78783880161232c565b945060208601359150808211156123fd57600080fd5b5061240a8682870161232c565b925050604084013561241b8161239c565b809150509250925092565b60008060006060848603121561243b57600080fd5b833561244681612259565b925060208401359150604084013561241b81612259565b6000806040838503121561247057600080fd5b823561247b81612259565b946020939093013593505050565b60006020828403121561249b57600080fd5b8135610a528161239c565b600080604083850312156124b957600080fd5b823567ffffffffffffffff808211156124d157600080fd5b6124dd8683870161232c565b935060208501359150808211156124f357600080fd5b506125008582860161232c565b9150509250929050565b8015158114610d6257600080fd5b60006020828403121561252a57600080fd5b8135610a528161250a565b60208082526025908201527f4665654d616e616765723a2063616c6c6572206973206e6f7420746865206d616040820152643730b3b2b960d91b606082015260800190565b6001600160a01b039384168152919092166020820152604081019190915260600190565b6000602082840312156125b057600080fd5b8151610a528161250a565b60208082526023908201527f4665654d616e616765723a2063616c6c6572206973206e6f7420746865206f776040820152623732b960e91b606082015260800190565b60006020828403121561261057600080fd5b5051919050565b6000815160005b81811015612638576020818501810151868301520161261e565b81811115612647576000828601525b509290920192915050565b60006126676126618386612617565b84612617565b949350505050565b634e487b7160e01b600052601160045260246000fd5b600081600019048311821515161561269f5761269f61266f565b500290565b6000826126c157634e487b7160e01b600052601260045260246000fd5b500490565b634e487b7160e01b600052603260045260246000fd5b6000828210156126ee576126ee61266f565b500390565b600063ffffffff80831681810361270c5761270c61266f565b6001019392505050565b60006020828403121561272857600080fd5b8151610a5281612259565b600081518084526020808501945080840160005b8381101561276c5781516001600160a01b031687529582019590820190600101612747565b509495945050505050565b85815284602082015260a06040820152600061279660a0830186612733565b6001600160a01b0394909416606083015250608001529392505050565b6020808252600f908201526e5468652073616d652076616c75652160881b604082015260600190565b600063ffffffff8083168185168083038211156127fb576127fb61266f565b01949350505050565b602080825260169082015275546f74616c20666565206d757374206265203130302560501b604082015260600190565b8281526040602082015260006126676040830184612733565b6000602080838503121561286057600080fd5b825167ffffffffffffffff8082111561287857600080fd5b818501915085601f83011261288c57600080fd5b81518181111561289e5761289e6122e5565b8060051b91506128af8483016122fb565b81815291830184019184810190888411156128c957600080fd5b938501935b838510156128e7578451825293850193908501906128ce565b98975050505050505050565b60006020828403121561290557600080fd5b8151610a528161239c565b60008161291f5761291f61266f565b506000190190565b6000600182016129395761293961266f565b506001019056fea2646970667358221220961d2d41c5aed0b94fdabc084cb6b5003e783cfe5eaa741614498c480c99f76264736f6c634300080d0033",
  "linkReferences": {},
  "deployedLinkReferences": {}
}