{
  "_format": "hh-sol-artifact-1",
  "contractName": "NodeManager",
  "sourceName": "contracts/NodeManager.sol",
  "abi": [
    {
      "inputs": [
        {
          "internalType": "address",
          "name": "_feeManager",
          "type": "address"
        },
        {
          "internalType": "address",
          "name": "_nftAddress",
          "type": "address"
        }
      ],
      "stateMutability": "nonpayable",
      "type": "constructor"
    },
    {
      "anonymous": false,
      "inputs": [
        {
          "indexed": false,
          "internalType": "address",
          "name": "",
          "type": "address"
        },
        {
          "indexed": false,
          "internalType": "string",
          "name": "",
          "type": "string"
        },
        {
          "indexed": false,
          "internalType": "uint32",
          "name": "",
          "type": "uint32"
        },
        {
          "indexed": false,
          "internalType": "uint32",
          "name": "",
          "type": "uint32"
        },
        {
          "indexed": false,
          "internalType": "uint32",
          "name": "",
          "type": "uint32"
        },
        {
          "indexed": false,
          "internalType": "uint32",
          "name": "",
          "type": "uint32"
        }
      ],
      "name": "NodeCreated",
      "type": "event"
    },
    {
      "anonymous": false,
      "inputs": [
        {
          "indexed": false,
          "internalType": "address",
          "name": "",
          "type": "address"
        },
        {
          "indexed": false,
          "internalType": "address",
          "name": "",
          "type": "address"
        },
        {
          "indexed": false,
          "internalType": "uint32",
          "name": "",
          "type": "uint32"
        }
      ],
      "name": "NodeTransfered",
      "type": "event"
    },
    {
      "anonymous": false,
      "inputs": [
        {
          "indexed": false,
          "internalType": "address",
          "name": "",
          "type": "address"
        },
        {
          "indexed": false,
          "internalType": "string",
          "name": "",
          "type": "string"
        },
        {
          "indexed": false,
          "internalType": "string",
          "name": "",
          "type": "string"
        },
        {
          "indexed": false,
          "internalType": "uint32",
          "name": "",
          "type": "uint32"
        }
      ],
      "name": "NodeUpdated",
      "type": "event"
    },
    {
      "anonymous": false,
      "inputs": [
        {
          "indexed": true,
          "internalType": "address",
          "name": "",
          "type": "address"
        },
        {
          "indexed": true,
          "internalType": "uint32",
          "name": "",
          "type": "uint32"
        },
        {
          "indexed": false,
          "internalType": "string",
          "name": "",
          "type": "string"
        },
        {
          "indexed": false,
          "internalType": "uint32",
          "name": "",
          "type": "uint32"
        },
        {
          "indexed": false,
          "internalType": "int32",
          "name": "",
          "type": "int32"
        }
      ],
      "name": "SwapIn",
      "type": "event"
    },
    {
      "anonymous": false,
      "inputs": [
        {
          "indexed": false,
          "internalType": "address",
          "name": "",
          "type": "address"
        },
        {
          "indexed": false,
          "internalType": "uint32",
          "name": "",
          "type": "uint32"
        },
        {
          "indexed": false,
          "internalType": "uint32",
          "name": "",
          "type": "uint32"
        },
        {
          "indexed": false,
          "internalType": "string",
          "name": "",
          "type": "string"
        },
        {
          "indexed": false,
          "internalType": "uint32",
          "name": "",
          "type": "uint32"
        }
      ],
      "name": "SwapOut",
      "type": "event"
    },
    {
      "inputs": [
        {
          "internalType": "address",
          "name": "_account",
          "type": "address"
        }
      ],
      "name": "addBlacklist",
      "outputs": [],
      "stateMutability": "nonpayable",
      "type": "function"
    },
    {
      "inputs": [
        {
          "internalType": "string",
          "name": "name",
          "type": "string"
        },
        {
          "internalType": "uint256",
          "name": "price",
          "type": "uint256"
        },
        {
          "internalType": "uint256",
          "name": "rewardsPerTime",
          "type": "uint256"
        },
        {
          "internalType": "uint32",
          "name": "claimInterval",
          "type": "uint32"
        },
        {
          "internalType": "uint256",
          "name": "maintenanceFee",
          "type": "uint256"
        },
        {
          "internalType": "uint32",
          "name": "maxPurchase",
          "type": "uint32"
        }
      ],
      "name": "addTier",
      "outputs": [],
      "stateMutability": "nonpayable",
      "type": "function"
    },
    {
      "inputs": [
        {
          "internalType": "bytes32",
          "name": "",
          "type": "bytes32"
        }
      ],
      "name": "airdropSupplied",
      "outputs": [
        {
          "internalType": "bool",
          "name": "",
          "type": "bool"
        }
      ],
      "stateMutability": "view",
      "type": "function"
    },
    {
      "inputs": [],
      "name": "aloraNFT",
      "outputs": [
        {
          "internalType": "contract IAloraNFT",
          "name": "",
          "type": "address"
        }
      ],
      "stateMutability": "view",
      "type": "function"
    },
    {
      "inputs": [
        {
          "internalType": "address",
          "name": "_nftAddress",
          "type": "address"
        }
      ],
      "name": "bindAloraNFT",
      "outputs": [],
      "stateMutability": "nonpayable",
      "type": "function"
    },
    {
      "inputs": [
        {
          "internalType": "address",
          "name": "_feeManager",
          "type": "address"
        }
      ],
      "name": "bindFeeManager",
      "outputs": [],
      "stateMutability": "nonpayable",
      "type": "function"
    },
    {
      "inputs": [
        {
          "internalType": "address",
          "name": "",
          "type": "address"
        }
      ],
      "name": "blacklist",
      "outputs": [
        {
          "internalType": "bool",
          "name": "",
          "type": "bool"
        }
      ],
      "stateMutability": "view",
      "type": "function"
    },
    {
      "inputs": [
        {
          "internalType": "uint32[]",
          "name": "indice",
          "type": "uint32[]"
        }
      ],
      "name": "burnNodes",
      "outputs": [],
      "stateMutability": "nonpayable",
      "type": "function"
    },
    {
      "inputs": [
        {
          "internalType": "address",
          "name": "account",
          "type": "address"
        }
      ],
      "name": "burnUser",
      "outputs": [],
      "stateMutability": "nonpayable",
      "type": "function"
    },
    {
      "inputs": [],
      "name": "burnedNodes",
      "outputs": [
        {
          "components": [
            {
              "internalType": "uint32",
              "name": "id",
              "type": "uint32"
            },
            {
              "internalType": "uint8",
              "name": "tierIndex",
              "type": "uint8"
            },
            {
              "internalType": "string",
              "name": "title",
              "type": "string"
            },
            {
              "internalType": "address",
              "name": "owner",
              "type": "address"
            },
            {
              "internalType": "uint32",
              "name": "createdTime",
              "type": "uint32"
            },
            {
              "internalType": "uint32",
              "name": "claimedTime",
              "type": "uint32"
            },
            {
              "internalType": "uint32",
              "name": "limitedTime",
              "type": "uint32"
            },
            {
              "internalType": "uint256",
              "name": "multiplier",
              "type": "uint256"
            }
          ],
          "internalType": "struct Node[]",
          "name": "",
          "type": "tuple[]"
        }
      ],
      "stateMutability": "view",
      "type": "function"
    },
    {
      "inputs": [],
      "name": "canNodeTransfer",
      "outputs": [
        {
          "internalType": "bool",
          "name": "",
          "type": "bool"
        }
      ],
      "stateMutability": "view",
      "type": "function"
    },
    {
      "inputs": [
        {
          "internalType": "address",
          "name": "account",
          "type": "address"
        }
      ],
      "name": "checkHasNodes",
      "outputs": [
        {
          "internalType": "bool",
          "name": "",
          "type": "bool"
        }
      ],
      "stateMutability": "view",
      "type": "function"
    },
    {
      "inputs": [],
      "name": "claim",
      "outputs": [],
      "stateMutability": "nonpayable",
      "type": "function"
    },
    {
      "inputs": [
        {
          "internalType": "address",
          "name": "_account",
          "type": "address"
        }
      ],
      "name": "claimable",
      "outputs": [
        {
          "internalType": "uint256",
          "name": "",
          "type": "uint256"
        }
      ],
      "stateMutability": "view",
      "type": "function"
    },
    {
      "inputs": [
        {
          "internalType": "string",
          "name": "tierName",
          "type": "string"
        },
        {
          "internalType": "string",
          "name": "title",
          "type": "string"
        },
        {
          "internalType": "uint32",
          "name": "count",
          "type": "uint32"
        }
      ],
      "name": "compound",
      "outputs": [],
      "stateMutability": "nonpayable",
      "type": "function"
    },
    {
      "inputs": [
        {
          "internalType": "address",
          "name": "account",
          "type": "address"
        },
        {
          "internalType": "string",
          "name": "tierName",
          "type": "string"
        }
      ],
      "name": "countOfNodes",
      "outputs": [
        {
          "internalType": "uint32",
          "name": "",
          "type": "uint32"
        }
      ],
      "stateMutability": "view",
      "type": "function"
    },
    {
      "inputs": [
        {
          "internalType": "string",
          "name": "",
          "type": "string"
        }
      ],
      "name": "countOfTier",
      "outputs": [
        {
          "internalType": "uint32",
          "name": "",
          "type": "uint32"
        }
      ],
      "stateMutability": "view",
      "type": "function"
    },
    {
      "inputs": [
        {
          "internalType": "address",
          "name": "",
          "type": "address"
        }
      ],
      "name": "countOfUser",
      "outputs": [
        {
          "internalType": "uint32",
          "name": "",
          "type": "uint32"
        }
      ],
      "stateMutability": "view",
      "type": "function"
    },
    {
      "inputs": [],
      "name": "countTotal",
      "outputs": [
        {
          "internalType": "uint32",
          "name": "",
          "type": "uint32"
        }
      ],
      "stateMutability": "view",
      "type": "function"
    },
    {
      "inputs": [
        {
          "internalType": "string",
          "name": "tierName",
          "type": "string"
        },
        {
          "internalType": "string",
          "name": "title",
          "type": "string"
        },
        {
          "internalType": "uint32",
          "name": "count",
          "type": "uint32"
        }
      ],
      "name": "create",
      "outputs": [],
      "stateMutability": "nonpayable",
      "type": "function"
    },
    {
      "inputs": [
        {
          "internalType": "string",
          "name": "tierName",
          "type": "string"
        },
        {
          "internalType": "uint32",
          "name": "count",
          "type": "uint32"
        },
        {
          "internalType": "address",
          "name": "_user",
          "type": "address"
        }
      ],
      "name": "createForUser",
      "outputs": [],
      "stateMutability": "nonpayable",
      "type": "function"
    },
    {
      "inputs": [],
      "name": "feeManager",
      "outputs": [
        {
          "internalType": "contract IFeeManager",
          "name": "",
          "type": "address"
        }
      ],
      "stateMutability": "view",
      "type": "function"
    },
    {
      "inputs": [],
      "name": "feeTokenAddress",
      "outputs": [
        {
          "internalType": "address",
          "name": "",
          "type": "address"
        }
      ],
      "stateMutability": "view",
      "type": "function"
    },
    {
      "inputs": [
        {
          "internalType": "address",
          "name": "account",
          "type": "address"
        },
        {
          "internalType": "uint256",
          "name": "timeFrom",
          "type": "uint256"
        },
        {
          "internalType": "uint256",
          "name": "timeTo",
          "type": "uint256"
        }
      ],
      "name": "getBoostRate",
      "outputs": [
        {
          "internalType": "uint256",
          "name": "",
          "type": "uint256"
        }
      ],
      "stateMutability": "view",
      "type": "function"
    },
    {
      "inputs": [
        {
          "internalType": "string",
          "name": "tierNameFrom",
          "type": "string"
        },
        {
          "internalType": "string",
          "name": "tierNameTo",
          "type": "string"
        },
        {
          "internalType": "uint32",
          "name": "count",
          "type": "uint32"
        }
      ],
      "name": "getUpgradeFee",
      "outputs": [
        {
          "internalType": "uint256",
          "name": "",
          "type": "uint256"
        },
        {
          "internalType": "uint256",
          "name": "",
          "type": "uint256"
        }
      ],
      "stateMutability": "view",
      "type": "function"
    },
    {
      "inputs": [],
      "name": "maxCountOfUser",
      "outputs": [
        {
          "internalType": "uint32",
          "name": "",
          "type": "uint32"
        }
      ],
      "stateMutability": "view",
      "type": "function"
    },
    {
      "inputs": [],
      "name": "maxNodeIndex",
      "outputs": [
        {
          "internalType": "uint32",
          "name": "",
          "type": "uint32"
        }
      ],
      "stateMutability": "view",
      "type": "function"
    },
    {
      "inputs": [
        {
          "internalType": "string",
          "name": "",
          "type": "string"
        }
      ],
      "name": "merkleRoot",
      "outputs": [
        {
          "internalType": "bytes32",
          "name": "",
          "type": "bytes32"
        }
      ],
      "stateMutability": "view",
      "type": "function"
    },
    {
      "inputs": [
        {
          "internalType": "address[]",
          "name": "accounts",
          "type": "address[]"
        },
        {
          "internalType": "string",
          "name": "tierName",
          "type": "string"
        },
        {
          "internalType": "string",
          "name": "title",
          "type": "string"
        },
        {
          "internalType": "uint32",
          "name": "count",
          "type": "uint32"
        }
      ],
      "name": "mint",
      "outputs": [],
      "stateMutability": "nonpayable",
      "type": "function"
    },
    {
      "inputs": [],
      "name": "minter",
      "outputs": [
        {
          "internalType": "address",
          "name": "",
          "type": "address"
        }
      ],
      "stateMutability": "view",
      "type": "function"
    },
    {
      "inputs": [
        {
          "internalType": "address",
          "name": "account",
          "type": "address"
        }
      ],
      "name": "nodes",
      "outputs": [
        {
          "components": [
            {
              "internalType": "uint32",
              "name": "id",
              "type": "uint32"
            },
            {
              "internalType": "uint8",
              "name": "tierIndex",
              "type": "uint8"
            },
            {
              "internalType": "string",
              "name": "title",
              "type": "string"
            },
            {
              "internalType": "address",
              "name": "owner",
              "type": "address"
            },
            {
              "internalType": "uint32",
              "name": "createdTime",
              "type": "uint32"
            },
            {
              "internalType": "uint32",
              "name": "claimedTime",
              "type": "uint32"
            },
            {
              "internalType": "uint32",
              "name": "limitedTime",
              "type": "uint32"
            },
            {
              "internalType": "uint256",
              "name": "multiplier",
              "type": "uint256"
            }
          ],
          "internalType": "struct Node[]",
          "name": "",
          "type": "tuple[]"
        }
      ],
      "stateMutability": "view",
      "type": "function"
    },
    {
      "inputs": [
        {
          "internalType": "address",
          "name": "",
          "type": "address"
        },
        {
          "internalType": "uint256",
          "name": "",
          "type": "uint256"
        }
      ],
      "name": "nodesOfUser",
      "outputs": [
        {
          "internalType": "uint256",
          "name": "",
          "type": "uint256"
        }
      ],
      "stateMutability": "view",
      "type": "function"
    },
    {
      "inputs": [],
      "name": "owner",
      "outputs": [
        {
          "internalType": "address",
          "name": "",
          "type": "address"
        }
      ],
      "stateMutability": "view",
      "type": "function"
    },
    {
      "inputs": [
        {
          "internalType": "uint8",
          "name": "count",
          "type": "uint8"
        },
        {
          "internalType": "uint256[]",
          "name": "selected",
          "type": "uint256[]"
        }
      ],
      "name": "pay",
      "outputs": [],
      "stateMutability": "payable",
      "type": "function"
    },
    {
      "inputs": [
        {
          "internalType": "address",
          "name": "_account",
          "type": "address"
        }
      ],
      "name": "removeBlacklist",
      "outputs": [],
      "stateMutability": "nonpayable",
      "type": "function"
    },
    {
      "inputs": [
        {
          "internalType": "string",
          "name": "tierName",
          "type": "string"
        }
      ],
      "name": "removeTier",
      "outputs": [],
      "stateMutability": "nonpayable",
      "type": "function"
    },
    {
      "inputs": [
        {
          "internalType": "address",
          "name": "",
          "type": "address"
        }
      ],
      "name": "rewardsOfUser",
      "outputs": [
        {
          "internalType": "uint256",
          "name": "",
          "type": "uint256"
        }
      ],
      "stateMutability": "view",
      "type": "function"
    },
    {
      "inputs": [],
      "name": "rewardsTotal",
      "outputs": [
        {
          "internalType": "uint256",
          "name": "",
          "type": "uint256"
        }
      ],
      "stateMutability": "view",
      "type": "function"
    },
    {
      "inputs": [
        {
          "internalType": "bool",
          "name": "value",
          "type": "bool"
        }
      ],
      "name": "setCanNodeTransfer",
      "outputs": [],
      "stateMutability": "nonpayable",
      "type": "function"
    },
    {
      "inputs": [
        {
          "internalType": "uint32",
          "name": "_count",
          "type": "uint32"
        }
      ],
      "name": "setMaxCountOfUser",
      "outputs": [],
      "stateMutability": "nonpayable",
      "type": "function"
    },
    {
      "inputs": [
        {
          "internalType": "address",
          "name": "_minter",
          "type": "address"
        }
      ],
      "name": "setMinter",
      "outputs": [],
      "stateMutability": "nonpayable",
      "type": "function"
    },
    {
      "inputs": [
        {
          "internalType": "address",
          "name": "_tokenAddress",
          "type": "address"
        }
      ],
      "name": "setPayTokenAddress",
      "outputs": [],
      "stateMutability": "nonpayable",
      "type": "function"
    },
    {
      "inputs": [
        {
          "internalType": "string",
          "name": "name",
          "type": "string"
        },
        {
          "internalType": "uint8",
          "name": "id",
          "type": "uint8"
        }
      ],
      "name": "setTierId",
      "outputs": [],
      "stateMutability": "nonpayable",
      "type": "function"
    },
    {
      "inputs": [
        {
          "internalType": "uint32",
          "name": "_chainId",
          "type": "uint32"
        },
        {
          "internalType": "string",
          "name": "_tierName",
          "type": "string"
        },
        {
          "internalType": "uint32",
          "name": "_amount",
          "type": "uint32"
        }
      ],
      "name": "swapIn",
      "outputs": [],
      "stateMutability": "payable",
      "type": "function"
    },
    {
      "inputs": [
        {
          "internalType": "address",
          "name": "_account",
          "type": "address"
        },
        {
          "internalType": "string",
          "name": "_tierName",
          "type": "string"
        },
        {
          "internalType": "uint32",
          "name": "_amount",
          "type": "uint32"
        },
        {
          "internalType": "int32",
          "name": "_limitedTime",
          "type": "int32"
        }
      ],
      "name": "swapOut",
      "outputs": [],
      "stateMutability": "nonpayable",
      "type": "function"
    },
    {
      "inputs": [
        {
          "internalType": "string",
          "name": "tierName",
          "type": "string"
        }
      ],
      "name": "tierInfo",
      "outputs": [
        {
          "internalType": "string",
          "name": "",
          "type": "string"
        },
        {
          "internalType": "uint256",
          "name": "",
          "type": "uint256"
        },
        {
          "internalType": "uint256",
          "name": "",
          "type": "uint256"
        },
        {
          "internalType": "uint32",
          "name": "",
          "type": "uint32"
        },
        {
          "internalType": "uint256",
          "name": "",
          "type": "uint256"
        },
        {
          "internalType": "uint32",
          "name": "",
          "type": "uint32"
        }
      ],
      "stateMutability": "view",
      "type": "function"
    },
    {
      "inputs": [
        {
          "internalType": "string",
          "name": "",
          "type": "string"
        }
      ],
      "name": "tierMap",
      "outputs": [
        {
          "internalType": "uint8",
          "name": "",
          "type": "uint8"
        }
      ],
      "stateMutability": "view",
      "type": "function"
    },
    {
      "inputs": [],
      "name": "tierTotal",
      "outputs": [
        {
          "internalType": "uint8",
          "name": "",
          "type": "uint8"
        }
      ],
      "stateMutability": "view",
      "type": "function"
    },
    {
      "inputs": [],
      "name": "tiers",
      "outputs": [
        {
          "components": [
            {
              "internalType": "uint8",
              "name": "id",
              "type": "uint8"
            },
            {
              "internalType": "string",
              "name": "name",
              "type": "string"
            },
            {
              "internalType": "uint256",
              "name": "price",
              "type": "uint256"
            },
            {
              "internalType": "uint256",
              "name": "rewardsPerTime",
              "type": "uint256"
            },
            {
              "internalType": "uint32",
              "name": "claimInterval",
              "type": "uint32"
            },
            {
              "internalType": "uint256",
              "name": "maintenanceFee",
              "type": "uint256"
            },
            {
              "internalType": "uint32",
              "name": "maxPurchase",
              "type": "uint32"
            }
          ],
          "internalType": "struct Tier[]",
          "name": "",
          "type": "tuple[]"
        }
      ],
      "stateMutability": "view",
      "type": "function"
    },
    {
      "inputs": [
        {
          "internalType": "string",
          "name": "tierName",
          "type": "string"
        },
        {
          "internalType": "uint32",
          "name": "count",
          "type": "uint32"
        },
        {
          "internalType": "address",
          "name": "recipient",
          "type": "address"
        }
      ],
      "name": "transfer",
      "outputs": [],
      "stateMutability": "nonpayable",
      "type": "function"
    },
    {
      "inputs": [
        {
          "internalType": "address",
          "name": "",
          "type": "address"
        }
      ],
      "name": "unclaimed",
      "outputs": [
        {
          "internalType": "uint256",
          "name": "",
          "type": "uint256"
        }
      ],
      "stateMutability": "view",
      "type": "function"
    },
    {
      "inputs": [],
      "name": "unpaidNodes",
      "outputs": [
        {
          "components": [
            {
              "internalType": "uint32",
              "name": "id",
              "type": "uint32"
            },
            {
              "internalType": "uint8",
              "name": "tierIndex",
              "type": "uint8"
            },
            {
              "internalType": "string",
              "name": "title",
              "type": "string"
            },
            {
              "internalType": "address",
              "name": "owner",
              "type": "address"
            },
            {
              "internalType": "uint32",
              "name": "createdTime",
              "type": "uint32"
            },
            {
              "internalType": "uint32",
              "name": "claimedTime",
              "type": "uint32"
            },
            {
              "internalType": "uint32",
              "name": "limitedTime",
              "type": "uint32"
            },
            {
              "internalType": "uint256",
              "name": "multiplier",
              "type": "uint256"
            }
          ],
          "internalType": "struct Node[]",
          "name": "",
          "type": "tuple[]"
        }
      ],
      "stateMutability": "view",
      "type": "function"
    },
    {
      "inputs": [
        {
          "internalType": "string",
          "name": "tierName",
          "type": "string"
        },
        {
          "internalType": "string",
          "name": "name",
          "type": "string"
        },
        {
          "internalType": "uint256",
          "name": "price",
          "type": "uint256"
        },
        {
          "internalType": "uint256",
          "name": "rewardsPerTime",
          "type": "uint256"
        },
        {
          "internalType": "uint32",
          "name": "claimInterval",
          "type": "uint32"
        },
        {
          "internalType": "uint256",
          "name": "maintenanceFee",
          "type": "uint256"
        },
        {
          "internalType": "uint32",
          "name": "maxPurchase",
          "type": "uint32"
        }
      ],
      "name": "updateTier",
      "outputs": [],
      "stateMutability": "nonpayable",
      "type": "function"
    },
    {
      "inputs": [
        {
          "internalType": "string",
          "name": "tierNameFrom",
          "type": "string"
        },
        {
          "internalType": "string",
          "name": "tierNameTo",
          "type": "string"
        },
        {
          "internalType": "uint32",
          "name": "count",
          "type": "uint32"
        }
      ],
      "name": "upgrade",
      "outputs": [],
      "stateMutability": "payable",
      "type": "function"
    }
  ],
  "bytecode": "0x60806040523480156200001157600080fd5b506040516200641f3803806200641f8339810160408190526200003491620005ff565b600d80546001600160a01b0319163317905562000051826200016e565b6200005c81620001df565b60408051808201909152600681526562726f6e7a6560d01b6020820152620000a590678ac7230489e800006702386f26fc10000062015180674563918244f4000060646200024c565b60408051808201909152600681526539b4b63b32b960d11b6020820152620000ef906802b5e3af16b1880000670de0b6b3a76400006201518067d02ab486cedc000060146200024c565b60408051808201909152600481526319dbdb1960e21b6020820152620001389068056bc75e2d631000006722b1c8c1227a00006201518068015af1d78b58c40000600a6200024c565b5050600c805463ffffffff60ff60c01b0119167801000000000000000000000000000000000000000000000082179055620006df565b600d546001600160a01b03163314620001bd5760405162461bcd60e51b81526020600482018190526024820152600080516020620063ff83398151915260448201526064015b60405180910390fd5b600080546001600160a01b0319166001600160a01b0392909216919091179055565b600d546001600160a01b031633146200022a5760405162461bcd60e51b81526020600482018190526024820152600080516020620063ff8339815191526044820152606401620001b4565b600180546001600160a01b0319166001600160a01b0392909216919091179055565b600d546001600160a01b03163314620002975760405162461bcd60e51b81526020600482018190526024820152600080516020620063ff8339815191526044820152606401620001b4565b60008511620002e95760405162461bcd60e51b815260206004820181905260248201527f5469657227732070726963652068617320746f20626520706f7369746976652e6044820152606401620001b4565b60008411620003465760405162461bcd60e51b815260206004820152602260248201527f54696572277320726577617264732068617320746f20626520706f7369746976604482015261329760f11b6064820152608401620001b4565b60008363ffffffff1611620003b05760405162461bcd60e51b815260206004820152602960248201527f54696572277320636c61696d20696e74657276616c2068617320746f206265206044820152683837b9b4ba34bb329760b91b6064820152608401620001b4565b6040805160e0810182526002805460ff808216845260208085018c81529585018b9052606085018a905263ffffffff898116608087015260a08601899052871660c086015260018301845560009390935283517f405787fa12a823e0f2b7631cc41b3ba8828b3321ca811111fa75cd3aa3bb5ace6007909302928301805460ff1916919092161781559351805193949362000475937f405787fa12a823e0f2b7631cc41b3ba8828b3321ca811111fa75cd3aa3bb5acf9093019291909101906200053c565b506040828101516002838101919091556060840151600380850191909155608085015160048501805463ffffffff1990811663ffffffff9384161790915560a0870151600587015560c0909601516006909501805490961694169390931790935591549151620004e790899062000637565b908152604051908190036020019020805460ff92831660ff19909116179055600480549091169060006200051b8362000675565b91906101000a81548160ff021916908360ff16021790555050505050505050565b8280546200054a90620006a3565b90600052602060002090601f0160209004810192826200056e5760008555620005b9565b82601f106200058957805160ff1916838001178555620005b9565b82800160010185558215620005b9579182015b82811115620005b95782518255916020019190600101906200059c565b50620005c7929150620005cb565b5090565b5b80821115620005c75760008155600101620005cc565b80516001600160a01b0381168114620005fa57600080fd5b919050565b600080604083850312156200061357600080fd5b6200061e83620005e2565b91506200062e60208401620005e2565b90509250929050565b6000825160005b818110156200065a57602081860181015185830152016200063e565b818111156200066a576000828501525b509190910192915050565b600060ff821660ff81036200069a57634e487b7160e01b600052601160045260246000fd5b60010192915050565b600181811c90821680620006b857607f821691505b602082108103620006d957634e487b7160e01b600052602260045260246000fd5b50919050565b615d1080620006ef6000396000f3fe6080604052600436106103355760003560e01c8063836d638b116101ab578063bb2d7f3a116100f7578063d33953bb11610095578063f2d049b61161006f578063f2d049b614610a50578063f9f92be414610a70578063fba6c21f14610aa0578063fca3b5aa14610ab557600080fd5b8063d33953bb146109f3578063e4cebc2914610a10578063eb91e65114610a3057600080fd5b8063cb1f4109116100d1578063cb1f41091461096b578063cd7de8821461098b578063d0fb0203146109a0578063d1b43593146109c057600080fd5b8063bb2d7f3a14610915578063c63d63c01461092b578063cac3716b1461094b57600080fd5b8063a38130ee11610164578063b88b60a31161013e578063b88b60a31461087e578063b8df0dea146108ae578063b9b2c177146108d5578063b9ff5744146108f557600080fd5b8063a38130ee1461081e578063a95ffed914610831578063b2dd3b371461085157600080fd5b8063836d638b14610755578063840c62d91461078a5780638da5cb5b146107ab5780639739026f146107cb5780639cfe42da146107eb5780639ea164b31461080b57600080fd5b80634290e36e116102855780635bcb11bb116102235780636c7cee81116101fd5780636c7cee81146106db5780636fb0ac04146106fb57806379420fb11461071b5780637bb2de801461073557600080fd5b80635bcb11bb146106635780635e3a4f451461068357806363829152146106bb57600080fd5b80634e71d92d1161025f5780634e71d92d146105b4578063505bd3da146105c9578063530ee54b146105f65780635a8c9bea1461064357600080fd5b80634290e36e1461055d5780634a95d9d51461057d5780634da51a731461059f57600080fd5b806322b45822116102f25780632dbc78e8116102cc5780632dbc78e8146104cd5780632fdbee15146104ed5780633a0f5a111461051d578063402914f51461053d57600080fd5b806322b458221461044157806324a8caea1461047f5780632655c1b91461049f57600080fd5b80630219e42e1461033a57806307546172146103755780630a3eccf2146103ad57806314578676146103df578063189a5a17146104015780631d1fa8321461042e575b600080fd5b34801561034657600080fd5b5061035a610355366004614dce565b610ad5565b60405161036c96959493929190614e62565b60405180910390f35b34801561038157600080fd5b50601354610395906001600160a01b031681565b6040516001600160a01b03909116815260200161036c565b3480156103b957600080fd5b50600c546103ca9063ffffffff1681565b60405163ffffffff909116815260200161036c565b3480156103eb57600080fd5b506103ff6103fa366004614ecc565b610c57565b005b34801561040d57600080fd5b5061042161041c366004614f8a565b610e67565b60405161036c9190614fa5565b6103ff61043c366004615082565b611156565b34801561044d57600080fd5b506103ca61045c366004614dce565b805160208183018101805160098252928201919093012091525463ffffffff1681565b34801561048b57600080fd5b506103ff61049a366004614f8a565b611829565b3480156104ab57600080fd5b506104bf6104ba3660046150f9565b611875565b60405190815260200161036c565b3480156104d957600080fd5b506103ff6104e8366004615146565b6118a6565b3480156104f957600080fd5b5061050d610508366004614f8a565b611b51565b604051901515815260200161036c565b34801561052957600080fd5b506103ff610538366004615082565b611c1e565b34801561054957600080fd5b506104bf610558366004614f8a565b611d22565b34801561056957600080fd5b506103ff6105783660046151e4565b611d3b565b34801561058957600080fd5b50610592611d83565b60405161036c9190615206565b3480156105ab57600080fd5b50610421611fbf565b3480156105c057600080fd5b506103ff6121d3565b3480156105d557600080fd5b506104bf6105e4366004614f8a565b60126020526000908152604090205481565b34801561060257600080fd5b50610631610611366004614dce565b805160208183018101805160038252928201919093012091525460ff1681565b60405160ff909116815260200161036c565b34801561064f57600080fd5b506103ff61065e3660046152b0565b6122e5565b34801561066f57600080fd5b506103ff61067e366004614f8a565b6123a3565b34801561068f57600080fd5b506104bf61069e366004614dce565b805160208183018101805160108252928201919093012091525481565b3480156106c757600080fd5b506104bf6106d63660046153a4565b6125e0565b3480156106e757600080fd5b506103ff6106f6366004614f8a565b612689565b34801561070757600080fd5b506103ff6107163660046153d7565b6126e0565b34801561072757600080fd5b506004546106319060ff1681565b34801561074157600080fd5b506103ca610750366004615436565b612dc9565b34801561076157600080fd5b50610775610770366004615082565b612ee9565b6040805192835260208301919091520161036c565b34801561079657600080fd5b50600c5461050d90600160c01b900460ff1681565b3480156107b757600080fd5b50600d54610395906001600160a01b031681565b3480156107d757600080fd5b506103ff6107e6366004615483565b6130d8565b3480156107f757600080fd5b506103ff610806366004614f8a565b613292565b6103ff61081936600461550d565b6132e0565b6103ff61082c3660046155b0565b6137cf565b34801561083d57600080fd5b506103ff61084c3660046155f7565b613a29565b34801561085d57600080fd5b506104bf61086c366004614f8a565b600b6020526000908152604090205481565b34801561088a57600080fd5b5061050d610899366004615676565b60116020526000908152604090205460ff1681565b3480156108ba57600080fd5b50600c5461039590600160201b90046001600160a01b031681565b3480156108e157600080fd5b506103ff6108f036600461568f565b613cb1565b34801561090157600080fd5b506103ff6109103660046153d7565b613d13565b34801561092157600080fd5b506104bf600a5481565b34801561093757600080fd5b506103ff6109463660046156dc565b613df0565b34801561095757600080fd5b50600154610395906001600160a01b031681565b34801561097757600080fd5b506103ff610986366004614f8a565b613e36565b34801561099757600080fd5b506005546103ca565b3480156109ac57600080fd5b50600054610395906001600160a01b031681565b3480156109cc57600080fd5b506103ca6109db366004614f8a565b60086020526000908152604090205463ffffffff1681565b3480156109ff57600080fd5b506007546103ca9063ffffffff1681565b348015610a1c57600080fd5b506103ff610a2b366004615082565b613e82565b348015610a3c57600080fd5b506103ff610a4b366004614f8a565b613fa2565b348015610a5c57600080fd5b506103ff610a6b366004614dce565b613fed565b348015610a7c57600080fd5b5061050d610a8b366004614f8a565b600e6020526000908152604090205460ff1681565b348015610aac57600080fd5b506104216140e9565b348015610ac157600080fd5b506103ff610ad0366004614f8a565b6143cf565b6060600080600080600080600388604051610af091906156f9565b9081526040519081900360200190205460ff16905080610b535760405162461bcd60e51b81526020600482015260196024820152782a34b2b913b9903730b6b29034b99034b731b7b93932b1ba1760391b60448201526064015b60405180910390fd5b60006002610b6260018461572b565b60ff1681548110610b7557610b7561574e565b60009182526020909120600790910201600281015460038201546004830154600584015460068501546001860180549697509563ffffffff93841693909116908690610bc090615764565b80601f0160208091040260200160405190810160405280929190818152602001828054610bec90615764565b8015610c395780601f10610c0e57610100808354040283529160200191610c39565b820191906000526020600020905b815481529060010190602001808311610c1c57829003601f168201915b50505050509550975097509750975097509750505091939550919395565b600d546001600160a01b03163314610c815760405162461bcd60e51b8152600401610b4a9061579e565b6000600388604051610c9391906156f9565b9081526040519081900360200190205460ff16905080610cf15760405162461bcd60e51b81526020600482015260196024820152782a34b2b913b9903730b6b29034b99034b731b7b93932b1ba1760391b6044820152606401610b4a565b60008611610d415760405162461bcd60e51b815260206004820181905260248201527f5469657227732070726963652068617320746f20626520706f7369746976652e6044820152606401610b4a565b60008511610d615760405162461bcd60e51b8152600401610b4a906157d3565b60006002610d7060018461572b565b60ff1681548110610d8357610d8361574e565b9060005260206000209060070201905087816001019080519060200190610dab929190614c01565b5060028101879055600380820187905560048201805463ffffffff80891663ffffffff1992831617909255600584018790556006840180549287169290911691909117905560405160009190610e02908c906156f9565b908152602001604051809103902060006101000a81548160ff021916908360ff16021790555081600389604051610e3991906156f9565b908152604051908190036020019020805460ff9290921660ff19909216919091179055505050505050505050565b60606001600160a01b038216610e8557610e7f611fbf565b92915050565b6001600160a01b03821660009081526008602052604081205463ffffffff1690816001600160401b03811115610ebd57610ebd614d19565b604051908082528060200260200182016040528015610ef657816020015b610ee3614c85565b815260200190600190039081610edb5790505b509050811561114f576001600160a01b038416600090815260066020526040812090805b825463ffffffff8216101561114b576000838263ffffffff1681548110610f4357610f4361574e565b9060005260206000200154905060008111156111385760006005610f68600184615815565b81548110610f7857610f7861574e565b6000918252602090912060049091020160028101549091506001600160a01b038a8116911603611136576040805161010081018252825463ffffffff81168252600160201b900460ff166020820152600183018054919284929084019190610fdf90615764565b80601f016020809104026020016040519081016040528092919081815260200182805461100b90615764565b80156110585780601f1061102d57610100808354040283529160200191611058565b820191906000526020600020905b81548152906001019060200180831161103b57829003601f168201915b505050918352505060028201546001600160a01b038116602083015263ffffffff600160a01b820481166040840152600160c01b820481166060840152600160e01b9091048116608083015260039092015460a0909101528751889187169081106110c5576110c561574e565b602090810291909101015260028101546110ee908a90600160c01b900463ffffffff16426125e0565b868563ffffffff16815181106111065761110661574e565b602090810291909101015160e001528361111f8161582c565b945050868463ffffffff161061113657505061114b565b505b50806111438161582c565b915050610f1a565b5050505b9392505050565b600060038460405161116891906156f9565b9081526040519081900360200181205460ff16915060009060039061118e9086906156f9565b9081526040519081900360200190205460ff908116915082166111f35760405162461bcd60e51b815260206004820152601d60248201527f496e76616c6964207469657220746f20757067726164652066726f6d2e0000006044820152606401610b4a565b60008160ff16116112465760405162461bcd60e51b815260206004820152601b60248201527f496e76616c6964207469657220746f207570677261646520746f2e00000000006044820152606401610b4a565b6000600261125560018561572b565b60ff16815481106112685761126861574e565b6000918252602082206007909102019150600261128660018561572b565b60ff16815481106112995761129961574e565b9060005260206000209060070201905081600201548160020154116112f75760405162461bcd60e51b81526020600482015260146024820152732ab730b13632903a37903237bbb733b930b2329760611b6044820152606401610b4a565b6000826002015482600201548763ffffffff16611314919061584f565b61131e9190615884565b9050600080600061133033898661441b565b91945092509050821561139e57336000908152600b6020526040902054611358908490615898565b336000908152600b6020526040902055600a54611376908490615898565b600a553360009081526012602052604081208054859290611398908490615898565b90915550505b6000805b8363ffffffff168163ffffffff161015611480576000838263ffffffff16815181106113d0576113d061574e565b60200260200101519050600060056001836113eb9190615815565b815481106113fb576113fb61574e565b60009182526020909120600490910201600281018054600167ffffffff0000000160a01b031916600160c01b4263ffffffff818116929092026001600160a01b031916929092179283905592935061145f929091600160e01b90041660030b6158b0565b61146990856158ef565b9350505080806114789061582c565b9150506113a2565b5033600090815260086020526040812080548592906114a690849063ffffffff16615938565b92506101000a81548163ffffffff021916908363ffffffff1602179055508260098d6040516114d591906156f9565b90815260405190819003602001902080546000906114fa90849063ffffffff16615938565b92506101000a81548163ffffffff021916908363ffffffff16021790555082600760008282829054906101000a900463ffffffff166115399190615938565b92506101000a81548163ffffffff021916908363ffffffff1602179055508463ffffffff168363ffffffff1610156115f35760006115778487615938565b63ffffffff16886002015461158c919061584f565b6000546040516317e6c76360e31b8152336004820152602481018390529192506001600160a01b03169063bf363b1890604401600060405180830381600087803b1580156115d957600080fd5b505af11580156115ed573d6000803e3d6000fd5b50505050505b611620338c604051806020016040528060008152508d8960030b8660030b61161b919061595d565b614696565b5060008061162f8e8e8e612ee9565b90925090503482116116e75760008054906101000a90046001600160a01b03166001600160a01b0316637a805d7b836040518263ffffffff1660e01b81526004016000604051808303818588803b15801561168957600080fd5b505af115801561169d573d6000803e3d6000fd5b5050505050813411156116e257336108fc6116b88434615815565b6040518115909202916000818181858888f193505050501580156116e0573d6000803e3d6000fd5b505b6117dd565b60008054906101000a90046001600160a01b03166001600160a01b0316637a805d7b346040518263ffffffff1660e01b81526004016000604051808303818588803b15801561173557600080fd5b505af1158015611749573d6000803e3d6000fd5b505050505060008282348561175e9190615815565b611768919061584f565b6117729190615884565b61177c9083615815565b600054604051630a82894760e31b8152600481018390529192506001600160a01b0316906354144a3890602401600060405180830381600087803b1580156117c357600080fd5b505af11580156117d7573d6000803e3d6000fd5b50505050505b7e3fb356fcd327584ecb5dba27616f7e2085b7b87a5750df071877c0e6b5a840338f8f8f604051611811949392919061598b565b60405180910390a15050505050505050505050505050565b600d546001600160a01b031633146118535760405162461bcd60e51b8152600401610b4a9061579e565b600080546001600160a01b0319166001600160a01b0392909216919091179055565b6006602052816000526040600020818154811061189157600080fd5b90600052602060002001600091509150505481565b600d546001600160a01b031633146118d05760405162461bcd60e51b8152600401610b4a9061579e565b6000805b82518163ffffffff161015611b13576000838263ffffffff16815181106118fd576118fd61574e565b602002602001015163ffffffff1690506000811115611b005760006005611925600184615815565b815481106119355761193561574e565b6000918252602090912060049091020160028101549091506001600160a01b031615611afe5760028101546001600160a01b03166000908152600660205260408120905b815463ffffffff821610156119ee57818163ffffffff16815481106119a0576119a061574e565b906000526020600020015484036119dc576000828263ffffffff16815481106119cb576119cb61574e565b6000918252602090912001556119ee565b806119e68161582c565b915050611979565b5060028201546001600160a01b03166000908152600860205260408120805463ffffffff1691611a1d836159d9565b82546101009290920a63ffffffff81810219909316918316021790915560028481018054600167ffffffff0000000160a01b031916600160c01b4290941693909302929092179091558354815460009350600160201b90910460ff16908110611a8857611a8861574e565b90600052602060002090600702019050600981600101604051611aab91906159f9565b908152604051908190036020019020805463ffffffff16906000611ace836159d9565b91906101000a81548163ffffffff021916908363ffffffff160217905550508580611af89061582c565b96505050505b505b5080611b0b8161582c565b9150506118d4565b5060078054829190600090611b2f90849063ffffffff16615938565b92506101000a81548163ffffffff021916908363ffffffff1602179055505050565b6001600160a01b0381166000908152600660205260408120815b815463ffffffff82161015611c14576000828263ffffffff1681548110611b9457611b9461574e565b906000526020600020015490506000811115611c015760006005611bb9600184615815565b81548110611bc957611bc961574e565b6000918252602090912060049091020160028101549091506001600160a01b03878116911603611bff5750600195945050505050565b505b5080611c0c8161582c565b915050611b6b565b5060009392505050565b6000611c2e338585856000614696565b6000546040516317e6c76360e31b8152336004820152602481018390529192506001600160a01b03169063bf363b1890604401600060405180830381600087803b158015611c7b57600080fd5b505af1158015611c8f573d6000803e3d6000fd5b505060075433600081815260086020526040908190205490517f3a823590161fd78e3988b3da59eb891df9f43272cf652f586d2e79f65f6f357195509193508892879263ffffffff9182169290911690600990611ced9086906156f9565b90815260405190819003602001812054611d1496959493929163ffffffff90911690615a94565b60405180910390a150505050565b600080611d318360008061441b565b5090949350505050565b600d546001600160a01b03163314611d655760405162461bcd60e51b8152600401610b4a9061579e565b600c8054911515600160c01b0260ff60c01b19909216919091179055565b60045460609060009060ff166001600160401b03811115611da657611da6614d19565b604051908082528060200260200182016040528015611e2657816020015b611e136040518060e00160405280600060ff168152602001606081526020016000815260200160008152602001600063ffffffff16815260200160008152602001600063ffffffff1681525090565b815260200190600190039081611dc45790505b5090506000805b60025460ff82161015611fb757600060028260ff1681548110611e5257611e5261574e565b906000526020600020906007020190506000600382600101604051611e7791906159f9565b9081526040519081900360200190205460ff161115611fa4576040805160e08101909152815460ff16815260018201805483916020840191611eb890615764565b80601f0160208091040260200160405190810160405280929190818152602001828054611ee490615764565b8015611f315780601f10611f0657610100808354040283529160200191611f31565b820191906000526020600020905b815481529060010190602001808311611f1457829003601f168201915b50505091835250506002820154602082015260038201546040820152600482015463ffffffff90811660608301526005830154608083015260069092015490911660a0909101528484611f8381615ae8565b955060ff1681518110611f9857611f9861574e565b60200260200101819052505b5080611faf81615ae8565b915050611e2d565b509092915050565b600754600554606091600091611fdb9163ffffffff1690615815565b90506000816001600160401b03811115611ff757611ff7614d19565b60405190808252806020026020018201604052801561203057816020015b61201d614c85565b8152602001906001900390816120155790505b5090506000805b6005548110156121ca576000600582815481106120565761205661574e565b6000918252602090912060049091020160028101549091506001600160a01b03166121b7576040805161010081018252825463ffffffff81168252600160201b900460ff1660208201526001830180549192849290840191906120b890615764565b80601f01602080910402602001604051908101604052809291908181526020018280546120e490615764565b80156121315780601f1061210657610100808354040283529160200191612131565b820191906000526020600020905b81548152906001019060200180831161211457829003601f168201915b505050918352505060028201546001600160a01b038116602083015263ffffffff600160a01b820481166040840152600160c01b820481166060840152600160e01b90910416608082015260039091015460a09091015284846121938161582c565b955063ffffffff16815181106121ab576121ab61574e565b60200260200101819052505b50806121c281615b07565b915050612037565b50909392505050565b336000908152600e602052604090205460ff16156122035760405162461bcd60e51b8152600401610b4a90615b20565b61220b614adc565b3360009081526012602052604090205461225e5760405162461bcd60e51b815260206004820152601460248201527327379031b630b4b6b0b13632903a37b5b2b7399760611b6044820152606401610b4a565b60008054338083526012602052604092839020549251635569f64b60e11b8152600481019190915260248101929092526001600160a01b03169063aad3ec9690604401600060405180830381600087803b1580156122bb57600080fd5b505af11580156122cf573d6000803e3d6000fd5b5050336000908152601260205260408120555050565b600d546001600160a01b0316331461230f5760405162461bcd60e51b8152600401610b4a9061579e565b60008451116123565760405162461bcd60e51b815260206004820152601360248201527222b6b83a3c9030b1b1b7bab73a103634b9ba1760691b6044820152606401610b4a565b60005b845181101561239c576123898582815181106123775761237761574e565b60200260200101518585856000614696565b508061239481615b07565b915050612359565b5050505050565b600d546001600160a01b031633146123cd5760405162461bcd60e51b8152600401610b4a9061579e565b6001600160a01b0381166000908152600660205260408120905b815463ffffffff82161015612534576000828263ffffffff16815481106124105761241061574e565b9060005260206000200154905060008111156125215760006005612435600184615815565b815481106124455761244561574e565b6000918252602090912060049091020160028101549091506001600160a01b0386811691160361251f5760028181018054600167ffffffff0000000160a01b031916600160c01b4263ffffffff16021790558154815460009291600160201b900460ff169081106124b8576124b861574e565b906000526020600020906007020190506009816001016040516124db91906159f9565b908152604051908190036020019020805463ffffffff169060006124fe836159d9565b91906101000a81548163ffffffff021916908363ffffffff16021790555050505b505b508061252c8161582c565b9150506123e7565b5060408051600080825260208083018085526001600160a01b0387168352600690915292902090516125669290614cca565b506001600160a01b0382166000908152600860205260408120546007805463ffffffff92831693919261259b91859116615938565b825463ffffffff9182166101009390930a928302919092021990911617905550506001600160a01b03166000908152600860205260409020805463ffffffff19169055565b600154600090670de0b6b3a7640000906001600160a01b031661260457905061114f565b60015460405163d7e6c7e760e01b81526001600160a01b03878116600483015260248201879052604482018690529091169063d7e6c7e790606401602060405180830381865afa15801561265c573d6000803e3d6000fd5b505050506040513d601f19601f820116820180604052508101906126809190615b48565b95945050505050565b600d546001600160a01b031633146126b35760405162461bcd60e51b8152600401610b4a9061579e565b600c80546001600160a01b03909216600160201b02640100000000600160c01b0319909216919091179055565b336000908152600e602052604090205460ff16156127105760405162461bcd60e51b8152600401610b4a90615b20565b600c54600160c01b900460ff16151560011461276e5760405162461bcd60e51b815260206004820152601a60248201527f4e6f6465207472616e7366657220756e617661696c61626c65210000000000006044820152606401610b4a565b600060038460405161278091906156f9565b9081526040519081900360200190205460ff169050806127e25760405162461bcd60e51b815260206004820152601960248201527f496e76616c6964207469657220746f207472616e736665722e000000000000006044820152606401610b4a565b600060026127f160018461572b565b60ff16815481106128045761280461574e565b60009182526020808320600c546001600160a01b038816855260089092526040909320546007909202909201925063ffffffff9182169161284791879116615b61565b63ffffffff16111561286b5760405162461bcd60e51b8152600401610b4a90615b89565b600681015463ffffffff16846128818588612dc9565b61288b9190615b61565b63ffffffff1611156128af5760405162461bcd60e51b8152600401610b4a90615b89565b336000908152600660205260408082206001600160a01b0386168352908220909180805b845463ffffffff82161015612aca576000858263ffffffff16815481106128fc576128fc61574e565b906000526020600020015490506000811115612ab75760006005612921600184615815565b815481106129315761293161574e565b600091825260209091206002600490920201908101549091506001600160a01b03163314801561297857508054600160201b900460ff1661297360018b61572b565b60ff16145b15612ab5576002810180546001600160a01b0319166001600160a01b038c1617908190556000906129b8903390600160c01b900463ffffffff16426125e0565b60048a015460038b0154600285015492935060009263ffffffff928316926129e891600160c01b90041642615815565b6129f2919061584f565b6129fc9190615884565b905085670de0b6b3a7640000612a12848461584f565b612a1c9190615884565b612a269190615898565b60028401805463ffffffff60c01b1916600160c01b4263ffffffff1602179055955086612a528161582c565b8954600181018b5560008b8152602081209091018790558b5491995091508a9063ffffffff8816908110612a8857612a8861574e565b90600052602060002001819055508c63ffffffff168763ffffffff1603612ab25750505050612aca565b50505b505b5080612ac28161582c565b9150506128d3565b508763ffffffff168263ffffffff1614612b265760405162461bcd60e51b815260206004820152601d60248201527f4e6f7420656e6f756768206e6f64657320746f207472616e736665722e0000006044820152606401610b4a565b33600090815260086020526040812080548a9290612b4b90849063ffffffff16615938565b82546101009290920a63ffffffff8181021990931691831602179091556001600160a01b038916600090815260086020526040812080548c94509092612b9391859116615b61565b92506101000a81548163ffffffff021916908363ffffffff1602179055506000811115612c1b57336000908152600b6020526040902054612bd5908290615898565b336000908152600b6020526040902055600a54612bf3908290615898565b600a553360009081526012602052604081208054839290612c15908490615898565b90915550505b6000805460028701546001600160a01b03909116906356c1e94990612c479063ffffffff8d169061584f565b6040518263ffffffff1660e01b8152600401612c6591815260200190565b602060405180830381865afa158015612c82573d6000803e3d6000fd5b505050506040513d601f19601f82011682018060405250810190612ca69190615b48565b905081811115612d39576000546001600160a01b03166323b872dd3330612ccd8686615815565b6040516001600160e01b031960e086901b1681526001600160a01b0393841660048201529290911660248301526044820152606401600060405180830381600087803b158015612d1c57600080fd5b505af1158015612d30573d6000803e3d6000fd5b50505050612d70565b81811015612d7057612d4b8183615815565b3360009081526012602052604081208054909190612d6a908490615898565b90915550505b604080513381526001600160a01b038a16602082015263ffffffff8b168183015290517f8a091ff4fd9357c3a846a822cac198fd60c380e70afd0af7e2451a3953727e039181900360600190a150505050505050505050565b600080600383604051612ddc91906156f9565b9081526040805160209281900383019020546001600160a01b0387166000908152600690935290822060ff909116925090805b825463ffffffff82161015612edf576000838263ffffffff1681548110612e3857612e3861574e565b906000526020600020015490506000811115612ecc5760006005612e5d600184615815565b81548110612e6d57612e6d61574e565b6000918252602090912060049091020160028101549091506001600160a01b038a81169116148015612eb75750612ea560018761572b565b8154600160201b900460ff9081169116145b15612eca5783612ec68161582c565b9450505b505b5080612ed78161582c565b915050612e0f565b5095945050505050565b6000806000600385604051612efe91906156f9565b9081526040519081900360200190205460ff16905080612f605760405162461bcd60e51b815260206004820152601b60248201527f496e76616c6964207469657220746f207570677261646520746f2e00000000006044820152606401610b4a565b60006002612f6f60018461572b565b60ff1681548110612f8257612f8261574e565b6000918252602082208254604051638556967160e01b8152600790930290910193506001600160a01b031690638556967190612fc4908b908b90600401615be6565b602060405180830381865afa158015612fe1573d6000803e3d6000fd5b505050506040513d601f19601f820116820180604052508101906130059190615c0b565b90508063ffffffff1660000361302457600080945094505050506130d0565b60006127108263ffffffff168863ffffffff168560020154613046919061584f565b613050919061584f565b61305a9190615884565b600054604051632f13551160e01b8152600481018390529192506001600160a01b031690632f13551190602401602060405180830381865afa1580156130a4573d6000803e3d6000fd5b505050506040513d601f19601f820116820180604052508101906130c89190615b48565b955093505050505b935093915050565b6013546001600160a01b031633146131325760405162461bcd60e51b815260206004820152601a60248201527f4f6e6c79206d696e7465722063616e2063616c6c20737761702e0000000000006044820152606401610b4a565b600060038460405161314491906156f9565b9081526040519081900360200190205460ff1690508061319e5760405162461bcd60e51b815260206004820152601560248201527424b73b30b634b2103a34b2b9103a379039bbb0b81760591b6044820152606401610b4a565b600060026131ad60018461572b565b60ff16815481106131c0576131c061574e565b60009182526020909120600790910201600681015490915063ffffffff16846131e98888612dc9565b6131f39190615b61565b63ffffffff16111561326d5760405162461bcd60e51b815260206004820152603a60248201527f43616e6e6f742073776170206e6f64652c20626563617573652072656369706960448201527f656e742077696c6c20676574206d6f7265207468616e204d41580000000000006064820152608401610b4a565b6132898686604051806020016040528060008152508787614696565b50505050505050565b600d546001600160a01b031633146132bc5760405162461bcd60e51b8152600401610b4a9061579e565b6001600160a01b03166000908152600e60205260409020805460ff19166001179055565b60008260ff161180156132f75750600c8260ff1611155b6133435760405162461bcd60e51b815260206004820152601960248201527f496e76616c6964206e756d626572206f66206d6f6e7468732e000000000000006044820152606401610b4a565b600081516000036134a757336000908152600660205260408120905b815463ffffffff821610156134a0576000828263ffffffff16815481106133885761338861574e565b90600052602060002001549050600081111561348d57600060056133ad600184615815565b815481106133bd576133bd61574e565b600091825260209091206004909102016002810154909150336001600160a01b039091160361348b57805460028054600092600160201b900460ff169081106134085761340861574e565b9060005260206000209060070201905062278d008860ff1661342a9190615c28565b600283018054601c9061344b908490600160e01b900463ffffffff16615b61565b92506101000a81548163ffffffff021916908363ffffffff160217905550858860ff16826005015461347d919061584f565b6134879190615898565b9550505b505b50806134988161582c565b91505061335f565b50506135d7565b60005b82518163ffffffff1610156135d5576000838263ffffffff16815181106134d3576134d361574e565b602002602001015190506000600582815481106134f2576134f261574e565b600091825260209091206004909102016002810154909150336001600160a01b03909116036135c057805460028054600092600160201b900460ff1690811061353d5761353d61574e565b9060005260206000209060070201905062278d008760ff1661355f9190615c28565b600283018054601c90613580908490600160e01b900463ffffffff16615b61565b92506101000a81548163ffffffff021916908363ffffffff160217905550848760ff1682600501546135b2919061584f565b6135bc9190615898565b9450505b505080806135cd9061582c565b9150506134aa565b505b600c54600160201b90046001600160a01b031661369e573481146136325760405162461bcd60e51b8152602060048201526012602482015271125b9d985b1a590811995948185b5bdd5b9d60721b6044820152606401610b4a565b60008054906101000a90046001600160a01b03166001600160a01b0316637a805d7b826040518263ffffffff1660e01b81526004016000604051808303818588803b15801561368057600080fd5b505af1158015613694573d6000803e3d6000fd5b5050505050505050565b600c546040516370a0823160e01b8152336004820152600160201b9091046001600160a01b0316906370a0823190602401602060405180830381865afa1580156136ec573d6000803e3d6000fd5b505050506040513d601f19601f820116820180604052508101906137109190615b48565b811061375e5760405162461bcd60e51b815260206004820152601860248201527f496e73756666696369656e74204255534420616d6f756e7400000000000000006044820152606401610b4a565b600054600c54604051633623cb4560e11b8152336004820152602481018490526001600160a01b03600160201b90920482166044820152911690636c47968a90606401600060405180830381600087803b1580156137bb57600080fd5b505af1158015613289573d6000803e3d6000fd5b60006003836040516137e191906156f9565b9081526040519081900360200190205460ff1690508061383b5760405162461bcd60e51b815260206004820152601560248201527424b73b30b634b2103a34b2b9103a379039bbb0b81760591b6044820152606401610b4a565b60008061384933848661441b565b92509250508363ffffffff168263ffffffff16146138a95760405162461bcd60e51b815260206004820152601960248201527f496e73756666696369656e74206e6f646520616d6f756e742e000000000000006044820152606401610b4a565b6000805b8363ffffffff168163ffffffff16101561398b576000838263ffffffff16815181106138db576138db61574e565b60200260200101519050600060056001836138f69190615815565b815481106139065761390661574e565b60009182526020909120600490910201600281018054600167ffffffff0000000160a01b031916600160c01b4263ffffffff818116929092026001600160a01b031916929092179283905592935061396a929091600160e01b90041660030b6158b0565b61397490856158ef565b9350505080806139839061582c565b9150506138ad565b5034156139cd576013546040516001600160a01b03909116903480156108fc02916000818181858888f193505050501580156139cb573d6000803e3d6000fd5b505b63ffffffff8716337f9761ee67b30b23422629a436a67715b0982dd4606e6d8ee3c20d176d39aeccac8888613a09600389810b9088900b61595d565b604051613a1893929190615c54565b60405180910390a350505050505050565b600d546001600160a01b03163314613a535760405162461bcd60e51b8152600401610b4a9061579e565b60008511613aa35760405162461bcd60e51b815260206004820181905260248201527f5469657227732070726963652068617320746f20626520706f7369746976652e6044820152606401610b4a565b60008411613ac35760405162461bcd60e51b8152600401610b4a906157d3565b60008363ffffffff1611613b2b5760405162461bcd60e51b815260206004820152602960248201527f54696572277320636c61696d20696e74657276616c2068617320746f206265206044820152683837b9b4ba34bb329760b91b6064820152608401610b4a565b6040805160e0810182526002805460ff808216845260208085018c81529585018b9052606085018a905263ffffffff898116608087015260a08601899052871660c086015260018301845560009390935283517f405787fa12a823e0f2b7631cc41b3ba8828b3321ca811111fa75cd3aa3bb5ace6007909302928301805460ff19169190921617815593518051939493613bee937f405787fa12a823e0f2b7631cc41b3ba8828b3321ca811111fa75cd3aa3bb5acf909301929190910190614c01565b506040828101516002838101919091556060840151600380850191909155608085015160048501805463ffffffff1990811663ffffffff9384161790915560a0870151600587015560c0909601516006909501805490961694169390931790935591549151613c5e9089906156f9565b908152604051908190036020019020805460ff92831660ff1990911617905560048054909116906000613c9083615ae8565b91906101000a81548160ff021916908360ff16021790555050505050505050565b600d546001600160a01b03163314613cdb5760405162461bcd60e51b8152600401610b4a9061579e565b80600383604051613cec91906156f9565b908152604051908190036020019020805460ff9290921660ff199092169190911790555050565b600d546001600160a01b03163314613d3d5760405162461bcd60e51b8152600401610b4a9061579e565b613d5a818460405180602001604052806000815250856000614696565b506007546001600160a01b038216600090815260086020526040908190205490517f3a823590161fd78e3988b3da59eb891df9f43272cf652f586d2e79f65f6f35719284928792879263ffffffff908116921690600990613dbc9086906156f9565b90815260405190819003602001812054613de396959493929163ffffffff90911690615a94565b60405180910390a1505050565b600d546001600160a01b03163314613e1a5760405162461bcd60e51b8152600401610b4a9061579e565b600c805463ffffffff191663ffffffff92909216919091179055565b600d546001600160a01b03163314613e605760405162461bcd60e51b8152600401610b4a9061579e565b600180546001600160a01b0319166001600160a01b0392909216919091179055565b6000613e92338585856000614696565b33600090815260126020526040902054909150811115613eb457613eb4614adc565b33600090815260126020526040902054811115613f265760405162461bcd60e51b815260206004820152602a60248201527f496e73756666696369656e7420636c61696d61626c6520746f6b656e7320746f6044820152691031b7b6b837bab7321760b11b6064820152608401610b4a565b3360009081526012602052604081208054839290613f45908490615815565b909155505060075433600081815260086020526040908190205490517f3a823590161fd78e3988b3da59eb891df9f43272cf652f586d2e79f65f6f3571938892879263ffffffff9283169290911690600990611ced9086906156f9565b600d546001600160a01b03163314613fcc5760405162461bcd60e51b8152600401610b4a9061579e565b6001600160a01b03166000908152600e60205260409020805460ff19169055565b600d546001600160a01b031633146140175760405162461bcd60e51b8152600401610b4a9061579e565b600060038260405161402991906156f9565b9081526040519081900360200190205460ff16116140895760405162461bcd60e51b815260206004820152601960248201527f546965722077617320616c72656164792072656d6f7665642e000000000000006044820152606401610b4a565b600060038260405161409b91906156f9565b908152604051908190036020019020805460ff92831660ff19909116179055600480549091169060006140cd83615c86565b91906101000a81548160ff021916908360ff1602179055505050565b600d546060906001600160a01b031633146141165760405162461bcd60e51b8152600401610b4a9061579e565b6000805b60055463ffffffff821610156141ad57600060058263ffffffff16815481106141455761414561574e565b6000918252602090912060049091020160028101549091506001600160a01b0316158015906141875750600281015463ffffffff428116600160e01b90920416105b1561419a57826141968161582c565b9350505b50806141a58161582c565b91505061411a565b5060008163ffffffff166001600160401b038111156141ce576141ce614d19565b60405190808252806020026020018201604052801561420757816020015b6141f4614c85565b8152602001906001900390816141ec5790505b5090506000805b60055463ffffffff821610156121ca57600060058263ffffffff16815481106142395761423961574e565b6000918252602090912060049091020160028101549091506001600160a01b03161580159061427b5750600281015463ffffffff428116600160e01b90920416105b156143bc576040805161010081018252825463ffffffff81168252600160201b900460ff1660208201526001830180549192849290840191906142bd90615764565b80601f01602080910402602001604051908101604052809291908181526020018280546142e990615764565b80156143365780601f1061430b57610100808354040283529160200191614336565b820191906000526020600020905b81548152906001019060200180831161431957829003601f168201915b505050918352505060028201546001600160a01b038116602083015263ffffffff600160a01b820481166040840152600160c01b820481166060840152600160e01b90910416608082015260039091015460a09091015284846143988161582c565b955063ffffffff16815181106143b0576143b061574e565b60200260200101819052505b50806143c78161582c565b91505061420e565b600d546001600160a01b031633146143f95760405162461bcd60e51b8152600401610b4a9061579e565b601380546001600160a01b0319166001600160a01b0392909216919091179055565b6001600160a01b03831660009081526006602052604081208054829160609183919082906001600160401b0381111561445657614456614d19565b60405190808252806020026020018201604052801561447f578160200160208202803683370190505b5090506000805b835463ffffffff82161015614685576000848263ffffffff16815481106144af576144af61574e565b90600052602060002001549050600081111561467157600060056144d4600184615815565b815481106144e4576144e461574e565b906000526020600020906004020190508b60ff16600014158015614521575061450e60018d61572b565b8154600160201b900460ff908116911614155b1561452d575050614673565b60028101546001600160a01b03808f1691160361466f576002810154600090614565908f90600160c01b900463ffffffff16426125e0565b8254600280549293506000929091600160201b900460ff1690811061458c5761458c61574e565b600091825260209091206007909102016004810154600382015460028601549293508b9263ffffffff92831692670de0b6b3a764000092879290916145d991600160c01b90041642615815565b6145e3919061584f565b6145ed919061584f565b6145f79190615884565b6146019190615884565b61460b9190615898565b985083878763ffffffff16815181106146265761462661574e565b60209081029190910101528561463b8161582c565b96505063ffffffff8d161580159061465e57508c63ffffffff168663ffffffff16145b1561466c5750505050614685565b50505b505b505b8061467d8161582c565b915050614486565b509299929850965090945050505050565b6001600160a01b0385166000908152600e602052604081205460ff16156146cf5760405162461bcd60e51b8152600401610b4a90615b20565b60006003866040516146e191906156f9565b9081526040519081900360200190205460ff1690506000600261470560018461572b565b60ff16815481106147185761471861574e565b60009182526020808320600c546001600160a01b038d16855260089092526040909320546007909202909201925063ffffffff9182169161475b91889116615b61565b63ffffffff1611156147b95760405162461bcd60e51b815260206004820152602160248201527f43616e6e6f7420637265617465206e6f6465206d6f7265207468616e204d41586044820152601760f91b6064820152608401610b4a565b600681015463ffffffff16856147cf8a8a612dc9565b6147d99190615b61565b63ffffffff16111561482d5760405162461bcd60e51b815260206004820181905260248201527f43616e6e6f7420637265617465206e6f6465206d6f7265207468616e204d41586044820152606401610b4a565b60005b8563ffffffff168163ffffffff1610156149d7576040805161010081019091526005805463ffffffff168252906020810161486c60018761572b565b60ff1681526020018981526020018b6001600160a01b031681526020014263ffffffff1681526020014263ffffffff1681526020018760030b426148b09190615c99565b63ffffffff90811682526000602092830181905284546001818101875595825290839020845160049092020180548585015160ff16600160201b0264ffffffffff199091169290931691909117919091178155604083015180519394919361492093928501929190910190614c01565b506060820151600282018054608085015160a086015160c08701516001600160a01b039586166001600160c01b031990941693909317600160a01b63ffffffff93841602176001600160c01b0316600160c01b918316919091026001600160e01b031617600160e01b919092160217905560e09092015160039091015589166000908152600660209081526040822060055481546001810183559184529190922090910155806149cf8161582c565b915050614830565b506001600160a01b03881660009081526008602052604081208054879290614a0690849063ffffffff16615b61565b92506101000a81548163ffffffff021916908363ffffffff16021790555084600988604051614a3591906156f9565b9081526040519081900360200190208054600090614a5a90849063ffffffff16615b61565b92506101000a81548163ffffffff021916908363ffffffff16021790555084600760008282829054906101000a900463ffffffff16614a999190615b61565b92506101000a81548163ffffffff021916908363ffffffff16021790555060008563ffffffff168260020154614acf919061584f565b9998505050505050505050565b6000806000614aed3360008061441b565b919450925090508215614b5b57336000908152600b6020526040902054614b15908490615898565b336000908152600b6020526040902055600a54614b33908490615898565b600a553360009081526012602052604081208054859290614b55908490615898565b90915550505b60005b8263ffffffff168163ffffffff161015614bfb576000828263ffffffff1681518110614b8c57614b8c61574e565b6020026020010151905060006005600183614ba79190615815565b81548110614bb757614bb761574e565b60009182526020909120600490910201600201805463ffffffff60c01b1916600160c01b4263ffffffff160217905550819050614bf38161582c565b915050614b5e565b50505050565b828054614c0d90615764565b90600052602060002090601f016020900481019282614c2f5760008555614c75565b82601f10614c4857805160ff1916838001178555614c75565b82800160010185558215614c75579182015b82811115614c75578251825591602001919060010190614c5a565b50614c81929150614d04565b5090565b604080516101008101825260008082526020820181905260609282018390529181018290526080810182905260a0810182905260c0810182905260e081019190915290565b828054828255906000526020600020908101928215614c755791602002820182811115614c75578251825591602001919060010190614c5a565b5b80821115614c815760008155600101614d05565b634e487b7160e01b600052604160045260246000fd5b604051601f8201601f191681016001600160401b0381118282101715614d5757614d57614d19565b604052919050565b600082601f830112614d7057600080fd5b81356001600160401b03811115614d8957614d89614d19565b614d9c601f8201601f1916602001614d2f565b818152846020838601011115614db157600080fd5b816020850160208301376000918101602001919091529392505050565b600060208284031215614de057600080fd5b81356001600160401b03811115614df657600080fd5b614e0284828501614d5f565b949350505050565b60005b83811015614e25578181015183820152602001614e0d565b83811115614bfb5750506000910152565b60008151808452614e4e816020860160208601614e0a565b601f01601f19169290920160200192915050565b60c081526000614e7560c0830189614e36565b602083019790975250604081019490945263ffffffff928316606085015260808401919091521660a090910152919050565b63ffffffff81168114614eb957600080fd5b50565b8035614ec781614ea7565b919050565b600080600080600080600060e0888a031215614ee757600080fd5b87356001600160401b0380821115614efe57600080fd5b614f0a8b838c01614d5f565b985060208a0135915080821115614f2057600080fd5b50614f2d8a828b01614d5f565b96505060408801359450606088013593506080880135614f4c81614ea7565b925060a0880135915060c0880135614f6381614ea7565b8091505092959891949750929550565b80356001600160a01b0381168114614ec757600080fd5b600060208284031215614f9c57600080fd5b61114f82614f73565b60006020808301818452808551808352604092508286019150828160051b87010184880160005b8381101561507457603f19898403018552815161010063ffffffff825116855260ff89830151168986015287820151818987015261500c82870182614e36565b915050606080830151615029828801826001600160a01b03169052565b505060808281015163ffffffff9081169187019190915260a08084015182169087015260c0808401519091169086015260e09182015191909401529386019390860190600101614fcc565b509098975050505050505050565b60008060006060848603121561509757600080fd5b83356001600160401b03808211156150ae57600080fd5b6150ba87838801614d5f565b945060208601359150808211156150d057600080fd5b506150dd86828701614d5f565b92505060408401356150ee81614ea7565b809150509250925092565b6000806040838503121561510c57600080fd5b61511583614f73565b946020939093013593505050565b60006001600160401b0382111561513c5761513c614d19565b5060051b60200190565b6000602080838503121561515957600080fd5b82356001600160401b0381111561516f57600080fd5b8301601f8101851361518057600080fd5b803561519361518e82615123565b614d2f565b81815260059190911b820183019083810190878311156151b257600080fd5b928401925b828410156151d95783356151ca81614ea7565b825292840192908401906151b7565b979650505050505050565b6000602082840312156151f657600080fd5b8135801515811461114f57600080fd5b60006020808301818452808551808352604092508286019150828160051b87010184880160005b8381101561507457603f19898403018552815160e060ff825116855288820151818a87015261525e82870182614e36565b838a0151878b01526060808501519088015260808085015163ffffffff9081169189019190915260a0808601519089015260c0948501511693909601929092525050938601939086019060010161522d565b600080600080608085870312156152c657600080fd5b84356001600160401b03808211156152dd57600080fd5b818701915087601f8301126152f157600080fd5b8135602061530161518e83615123565b82815260059290921b8401810191818101908b84111561532057600080fd5b948201945b838610156153455761533686614f73565b82529482019490820190615325565b9850508801359250508082111561535b57600080fd5b61536788838901614d5f565b9450604087013591508082111561537d57600080fd5b5061538a87828801614d5f565b92505061539960608601614ebc565b905092959194509250565b6000806000606084860312156153b957600080fd5b6153c284614f73565b95602085013595506040909401359392505050565b6000806000606084860312156153ec57600080fd5b83356001600160401b0381111561540257600080fd5b61540e86828701614d5f565b935050602084013561541f81614ea7565b915061542d60408501614f73565b90509250925092565b6000806040838503121561544957600080fd5b61545283614f73565b915060208301356001600160401b0381111561546d57600080fd5b61547985828601614d5f565b9150509250929050565b6000806000806080858703121561549957600080fd5b6154a285614f73565b935060208501356001600160401b038111156154bd57600080fd5b6154c987828801614d5f565b93505060408501356154da81614ea7565b91506060850135600381900b81146154f157600080fd5b939692955090935050565b803560ff81168114614ec757600080fd5b6000806040838503121561552057600080fd5b615529836154fc565b91506020808401356001600160401b0381111561554557600080fd5b8401601f8101861361555657600080fd5b803561556461518e82615123565b81815260059190911b8201830190838101908883111561558357600080fd5b928401925b828410156155a157833582529284019290840190615588565b80955050505050509250929050565b6000806000606084860312156155c557600080fd5b83356155d081614ea7565b925060208401356001600160401b038111156155eb57600080fd5b6150dd86828701614d5f565b60008060008060008060c0878903121561561057600080fd5b86356001600160401b0381111561562657600080fd5b61563289828a01614d5f565b9650506020870135945060408701359350606087013561565181614ea7565b92506080870135915060a087013561566881614ea7565b809150509295509295509295565b60006020828403121561568857600080fd5b5035919050565b600080604083850312156156a257600080fd5b82356001600160401b038111156156b857600080fd5b6156c485828601614d5f565b9250506156d3602084016154fc565b90509250929050565b6000602082840312156156ee57600080fd5b813561114f81614ea7565b6000825161570b818460208701614e0a565b9190910192915050565b634e487b7160e01b600052601160045260246000fd5b600060ff821660ff84168082101561574557615745615715565b90039392505050565b634e487b7160e01b600052603260045260246000fd5b600181811c9082168061577857607f821691505b60208210810361579857634e487b7160e01b600052602260045260246000fd5b50919050565b6020808252818101527f4f776e61626c653a2063616c6c6572206973206e6f7420746865206f776e6572604082015260600190565b60208082526022908201527f54696572277320726577617264732068617320746f20626520706f7369746976604082015261329760f11b606082015260800190565b60008282101561582757615827615715565b500390565b600063ffffffff80831681810361584557615845615715565b6001019392505050565b600081600019048311821515161561586957615869615715565b500290565b634e487b7160e01b600052601260045260246000fd5b6000826158935761589361586e565b500490565b600082198211156158ab576158ab615715565b500190565b60008083128015600160ff1b8501841216156158ce576158ce615715565b6001600160ff1b03840183138116156158e9576158e9615715565b50500390565b60008160030b8360030b6000821282637fffffff0382138115161561591657615916615715565b82637fffffff1903821281161561592f5761592f615715565b50019392505050565b600063ffffffff8381169083168181101561595557615955615715565b039392505050565b60008261596c5761596c61586e565b600160ff1b82146000198414161561598657615986615715565b500590565b6001600160a01b03851681526080602082018190526000906159af90830186614e36565b82810360408401526159c18186614e36565b91505063ffffffff8316606083015295945050505050565b600063ffffffff8216806159ef576159ef615715565b6000190192915050565b600080835481600182811c915080831680615a1557607f831692505b60208084108203615a3457634e487b7160e01b86526022600452602486fd5b818015615a485760018114615a5957615a86565b60ff19861689528489019650615a86565b60008a81526020902060005b86811015615a7e5781548b820152908501908301615a65565b505084890196505b509498975050505050505050565b6001600160a01b038716815260c060208201819052600090615ab890830188614e36565b63ffffffff9687166040840152948616606083015250918416608083015290921660a09092019190915292915050565b600060ff821660ff8103615afe57615afe615715565b60010192915050565b600060018201615b1957615b19615715565b5060010190565b6020808252600e908201526d125b9d985b1a59081dd85b1b195d60921b604082015260600190565b600060208284031215615b5a57600080fd5b5051919050565b600063ffffffff808316818516808303821115615b8057615b80615715565b01949350505050565b6020808252603e908201527f43616e6e6f74207472616e73666572206e6f64652c206265636175736520726560408201527f63697069656e742077696c6c20676574206d6f7265207468616e204d41580000606082015260800190565b604081526000615bf96040830185614e36565b82810360208401526126808185614e36565b600060208284031215615c1d57600080fd5b815161114f81614ea7565b600063ffffffff80831681851681830481118215151615615c4b57615c4b615715565b02949350505050565b606081526000615c676060830186614e36565b905063ffffffff841660208301528260030b6040830152949350505050565b600060ff8216806159ef576159ef615715565b600080821280156001600160ff1b0384900385131615615cbb57615cbb615715565b600160ff1b8390038412811615615cd457615cd4615715565b5050019056fea264697066735822122038a82b77013163addef18f4df97ceaf506cb76c65caaf2ba5def5b76e4e29c4364736f6c634300080d00334f776e61626c653a2063616c6c6572206973206e6f7420746865206f776e6572",
  "linkReferences": {},
  "deployedLinkReferences": {}
}