{
    "_format": "hh-sol-artifact-1",
    "contractName": "WhiteList",
    "sourceName": "contracts/WhiteList.sol",
    "abi": [
        {
            "inputs": [],
            "stateMutability": "nonpayable",
            "type": "constructor"
        },
        {
            "inputs": [],
            "name": "_totalDeposit",
            "outputs": [
                {
                    "internalType": "uint256",
                    "name": "",
                    "type": "uint256"
                }
            ],
            "stateMutability": "view",
            "type": "function"
        },
        {
            "inputs": [
                {
                    "internalType": "address",
                    "name": "",
                    "type": "address"
                }
            ],
            "name": "blacklist",
            "outputs": [
                {
                    "internalType": "bool",
                    "name": "",
                    "type": "bool"
                }
            ],
            "stateMutability": "view",
            "type": "function"
        },
        {
            "inputs": [
                {
                    "internalType": "address",
                    "name": "",
                    "type": "address"
                }
            ],
            "name": "depositAmount",
            "outputs": [
                {
                    "internalType": "uint256",
                    "name": "",
                    "type": "uint256"
                }
            ],
            "stateMutability": "view",
            "type": "function"
        },
        {
            "inputs": [
                {
                    "internalType": "bytes32[]",
                    "name": "merkleProof",
                    "type": "bytes32[]"
                },
                {
                    "internalType": "uint8",
                    "name": "whitelistType",
                    "type": "uint8"
                }
            ],
            "name": "depositToken",
            "outputs": [],
            "stateMutability": "nonpayable",
            "type": "function"
        },
        {
            "inputs": [],
            "name": "merkleRoot",
            "outputs": [
                {
                    "internalType": "bytes32",
                    "name": "",
                    "type": "bytes32"
                }
            ],
            "stateMutability": "view",
            "type": "function"
        },
        {
            "inputs": [],
            "name": "owner",
            "outputs": [
                {
                    "internalType": "address",
                    "name": "",
                    "type": "address"
                }
            ],
            "stateMutability": "view",
            "type": "function"
        },
        {
            "inputs": [
                {
                    "internalType": "uint8",
                    "name": "whitelistType",
                    "type": "uint8"
                },
                {
                    "internalType": "uint256",
                    "name": "_toDepositAmount",
                    "type": "uint256"
                }
            ],
            "name": "setDepositAmount",
            "outputs": [],
            "stateMutability": "nonpayable",
            "type": "function"
        },
        {
            "inputs": [
                {
                    "internalType": "bytes32",
                    "name": "_merkleRoot",
                    "type": "bytes32"
                }
            ],
            "name": "setMerkleRoot",
            "outputs": [],
            "stateMutability": "nonpayable",
            "type": "function"
        },
        {
            "inputs": [
                {
                    "internalType": "address",
                    "name": "_stableToken",
                    "type": "address"
                }
            ],
            "name": "setStableToken",
            "outputs": [],
            "stateMutability": "nonpayable",
            "type": "function"
        },
        {
            "inputs": [
                {
                    "internalType": "address",
                    "name": "_whiteListerfund",
                    "type": "address"
                }
            ],
            "name": "setWhiteListerfund",
            "outputs": [],
            "stateMutability": "nonpayable",
            "type": "function"
        },
        {
            "inputs": [],
            "name": "stableToken",
            "outputs": [
                {
                    "internalType": "address",
                    "name": "",
                    "type": "address"
                }
            ],
            "stateMutability": "view",
            "type": "function"
        },
        {
            "inputs": [
                {
                    "internalType": "bytes32[]",
                    "name": "merkleProof",
                    "type": "bytes32[]"
                }
            ],
            "name": "whiteLister",
            "outputs": [],
            "stateMutability": "view",
            "type": "function"
        },
        {
            "inputs": [],
            "name": "whiteListerfund",
            "outputs": [
                {
                    "internalType": "address",
                    "name": "",
                    "type": "address"
                }
            ],
            "stateMutability": "view",
            "type": "function"
        }
    ],
    "bytecode": "0x608060405234801561001057600080fd5b50600080546001600160a01b0319908116331782556001805490911673bd6fc012f89368ed1e0da4b0d047a09d0836672717905560055561098d806100566000396000f3fe608060405234801561001057600080fd5b50600436106100cf5760003560e01c80636929fc8f1161008c578063a9d75b2b11610066578063a9d75b2b146101af578063b8f6e841146101c2578063db1bc87b146101cb578063f9f92be4146101de57600080fd5b80636929fc8f1461015e5780637cb64759146101895780638da5cb5b1461019c57600080fd5b80630c03c41f146100d45780632eb4a7ab146100e95780633595411d1461010557806350f62da7146101185780635156585014610138578063663ab9471461014b575b600080fd5b6100e76100e2366004610781565b610211565b005b6100f260025481565b6040519081526020015b60405180910390f35b6100e76101133660046107d5565b6104e9565b6100f26101263660046107d5565b60076020526000908152604090205481565b6100e7610146366004610805565b610535565b6100e761015936600461082f565b610575565b600154610171906001600160a01b031681565b6040516001600160a01b0390911681526020016100fc565b6100e7610197366004610871565b61061a565b600054610171906001600160a01b031681565b600354610171906001600160a01b031681565b6100f260055481565b6100e76101d93660046107d5565b610649565b6102016101ec3660046107d5565b60066020526000908152604090205460ff1681565b60405190151581526020016100fc565b610287838380806020026020016040519081016040528093929190818152602001838360200280828437600092019190915250506002546040516bffffffffffffffffffffffff193360601b16602082015290925060340190505b60405160208183030381529060405280519060200120610695565b6102ce5760405162461bcd60e51b815260206004820152601360248201527224b73b30b634b2102bb434ba32a634b9ba32b960691b60448201526064015b60405180910390fd5b33600090815260076020526040902054156103225760405162461bcd60e51b8152602060048201526014602482015273105b1c9958591e4819195c1bdcda5d08199d5b9960621b60448201526064016102c5565b60ff81166000908152600460208190526040918290205460035492516370a0823160e01b81523392810192909252916001600160a01b0316906370a0823190602401602060405180830381865afa158015610381573d6000803e3d6000fd5b505050506040513d601f19601f820116820180604052508101906103a5919061088a565b10156103ea5760405162461bcd60e51b8152602060048201526014602482015273496e73756666696369656e742062616c616e636560601b60448201526064016102c5565b60035460015460ff83166000908152600460208190526040918290205491516323b872dd60e01b815233918101919091526001600160a01b03928316602482015260448101919091529116906323b872dd906064016020604051808303816000875af115801561045e573d6000803e3d6000fd5b505050506040513d601f19601f8201168201806040525081019061048291906108a3565b5060ff8116600090815260046020908152604080832054338452600790925282208054919290916104b49084906108db565b909155505060ff811660009081526004602052604081205460058054919290916104df9084906108db565b9091555050505050565b6000546001600160a01b031633146105135760405162461bcd60e51b81526004016102c5906108f3565b600180546001600160a01b0319166001600160a01b0392909216919091179055565b6000546001600160a01b0316331461055f5760405162461bcd60e51b81526004016102c5906108f3565b60ff909116600090815260046020526040902055565b6105d4828280806020026020016040519081016040528093929190818152602001838360200280828437600092019190915250506002546040516bffffffffffffffffffffffff193360601b166020820152909250603401905061026c565b6106165760405162461bcd60e51b815260206004820152601360248201527224b73b30b634b2102bb434ba32a634b9ba32b960691b60448201526064016102c5565b5050565b6000546001600160a01b031633146106445760405162461bcd60e51b81526004016102c5906108f3565b600255565b6000546001600160a01b031633146106735760405162461bcd60e51b81526004016102c5906108f3565b600380546001600160a01b0319166001600160a01b0392909216919091179055565b6000826106a285846106ab565b14949350505050565b600081815b84518110156107175760008582815181106106cd576106cd610928565b602002602001015190508083116106f35760008381526020829052604090209250610704565b600081815260208490526040902092505b508061070f8161093e565b9150506106b0565b509392505050565b60008083601f84011261073157600080fd5b50813567ffffffffffffffff81111561074957600080fd5b6020830191508360208260051b850101111561076457600080fd5b9250929050565b803560ff8116811461077c57600080fd5b919050565b60008060006040848603121561079657600080fd5b833567ffffffffffffffff8111156107ad57600080fd5b6107b98682870161071f565b90945092506107cc90506020850161076b565b90509250925092565b6000602082840312156107e757600080fd5b81356001600160a01b03811681146107fe57600080fd5b9392505050565b6000806040838503121561081857600080fd5b6108218361076b565b946020939093013593505050565b6000806020838503121561084257600080fd5b823567ffffffffffffffff81111561085957600080fd5b6108658582860161071f565b90969095509350505050565b60006020828403121561088357600080fd5b5035919050565b60006020828403121561089c57600080fd5b5051919050565b6000602082840312156108b557600080fd5b815180151581146107fe57600080fd5b634e487b7160e01b600052601160045260246000fd5b600082198211156108ee576108ee6108c5565b500190565b6020808252818101527f4f776e61626c653a2063616c6c6572206973206e6f7420746865206f776e6572604082015260600190565b634e487b7160e01b600052603260045260246000fd5b600060018201610950576109506108c5565b506001019056fea264697066735822122002abd2804982cc3d1d18d493d4f64784941cba38bbc6bb2c00e17243febc83a764736f6c634300080d0033",
    "linkReferences": {},
    "deployedLinkReferences": {}
}